{
  "contractName": "BirthDate",
  "abi": [
    {
      "constant": true,
      "inputs": [],
      "name": "birthdate",
      "outputs": [
        {
          "name": "",
          "type": "uint256"
        }
      ],
      "payable": false,
      "stateMutability": "view",
      "type": "function"
    },
    {
      "constant": false,
      "inputs": [
        {
          "name": "_birthdate",
          "type": "uint256"
        }
      ],
      "name": "set",
      "outputs": [],
      "payable": false,
      "stateMutability": "nonpayable",
      "type": "function"
    },
    {
      "constant": true,
      "inputs": [],
      "name": "get",
      "outputs": [
        {
          "name": "_birthdate",
          "type": "uint256"
        }
      ],
      "payable": false,
      "stateMutability": "view",
      "type": "function"
    }
  ],
  "bytecode": "0x608060405234801561001057600080fd5b5060e98061001f6000396000f3fe6080604052348015600f57600080fd5b5060043610603c5760003560e01c80634f72b54b14604157806360fe47b114605d5780636d4ce63c146088575b600080fd5b604760a4565b6040518082815260200191505060405180910390f35b608660048036036020811015607157600080fd5b810190808035906020019092919050505060aa565b005b608e60b4565b6040518082815260200191505060405180910390f35b60005481565b8060008190555050565b6000805490509056fea165627a7a72305820010662f1e4fe2e9c61c05bc509cf6467ff9aebf15f42cd9d73eb1f9233c45b180029",
  "source": "pragma solidity ^0.5.8;\r\n\r\ncontract BirthDate {\r\n    uint256 public birthdate;\r\n\r\n    function set(uint256 _birthdate) public {\r\n        birthdate = _birthdate;\r\n    }\r\n\r\n    function get() public view returns (uint _birthdate) {\r\n        return birthdate;\r\n    }\r\n}\r\n",
  "sourcePath": "D:\\Work\\TechGig\\2019\\Blockchain\\FinalRound\\CattleMarketPlace\\contracts\\BirthDate.sol",
  "compiler": {
    "name": "solc",
    "version": "0.5.8+commit.23d335f2.Emscripten.clang"
  },
  "schemaVersion": "3.0.11",
  "updatedAt": "2019-06-21T20:41:22.492Z",
  "devdoc": {
    "methods": {}
  },
  "userdoc": {
    "methods": {}
  }
}