{
  "contractName": "MarketPlace",
  "abi": [
    {
      "constant": true,
      "inputs": [
        {
          "name": "",
          "type": "address"
        }
      ],
      "name": "cattle_to_owner_map",
      "outputs": [
        {
          "name": "aadhaar",
          "type": "uint256"
        },
        {
          "name": "farmer_address",
          "type": "address"
        },
        {
          "name": "name",
          "type": "string"
        },
        {
          "name": "residence_address",
          "type": "string"
        },
        {
          "name": "email",
          "type": "string"
        },
        {
          "name": "phone",
          "type": "string"
        }
      ],
      "payable": false,
      "stateMutability": "view",
      "type": "function"
    },
    {
      "constant": true,
      "inputs": [
        {
          "name": "",
          "type": "uint256"
        }
      ],
      "name": "cattles_for_sell_map",
      "outputs": [
        {
          "name": "cattle_id",
          "type": "uint256"
        },
        {
          "name": "cattle_address",
          "type": "address"
        },
        {
          "name": "owner",
          "type": "address"
        },
        {
          "name": "name",
          "type": "string"
        },
        {
          "name": "age",
          "type": "uint256"
        },
        {
          "name": "breed",
          "type": "string"
        },
        {
          "name": "lastCalfBirth",
          "type": "uint256"
        },
        {
          "name": "isCow",
          "type": "bool"
        },
        {
          "name": "milkInLiters",
          "type": "uint256"
        },
        {
          "name": "health",
          "type": "string"
        },
        {
          "name": "description",
          "type": "string"
        }
      ],
      "payable": false,
      "stateMutability": "view",
      "type": "function"
    },
    {
      "constant": true,
      "inputs": [
        {
          "name": "",
          "type": "address"
        }
      ],
      "name": "seller_rating_map",
      "outputs": [
        {
          "name": "",
          "type": "uint256"
        }
      ],
      "payable": false,
      "stateMutability": "view",
      "type": "function"
    },
    {
      "inputs": [],
      "payable": false,
      "stateMutability": "nonpayable",
      "type": "constructor"
    },
    {
      "anonymous": false,
      "inputs": [
        {
          "indexed": true,
          "name": "_id",
          "type": "uint256"
        },
        {
          "indexed": true,
          "name": "_seller",
          "type": "address"
        },
        {
          "indexed": false,
          "name": "_name",
          "type": "string"
        },
        {
          "indexed": false,
          "name": "_price",
          "type": "uint256"
        }
      ],
      "name": "sellCattleEvent",
      "type": "event"
    },
    {
      "anonymous": false,
      "inputs": [
        {
          "indexed": true,
          "name": "_id",
          "type": "uint256"
        },
        {
          "indexed": true,
          "name": "_seller",
          "type": "address"
        },
        {
          "indexed": false,
          "name": "_name",
          "type": "string"
        },
        {
          "indexed": false,
          "name": "_price",
          "type": "uint256"
        }
      ],
      "name": "sellMilkEvent",
      "type": "event"
    },
    {
      "anonymous": false,
      "inputs": [
        {
          "indexed": true,
          "name": "_id",
          "type": "uint256"
        },
        {
          "indexed": true,
          "name": "_seller",
          "type": "address"
        },
        {
          "indexed": true,
          "name": "_buyer",
          "type": "address"
        },
        {
          "indexed": false,
          "name": "_name",
          "type": "string"
        },
        {
          "indexed": false,
          "name": "_price",
          "type": "uint256"
        }
      ],
      "name": "buyCattleEvent",
      "type": "event"
    },
    {
      "constant": false,
      "inputs": [
        {
          "name": "_accountType",
          "type": "uint256"
        },
        {
          "name": "_name",
          "type": "string"
        },
        {
          "name": "_emailId",
          "type": "string"
        },
        {
          "name": "_resAddress",
          "type": "string"
        },
        {
          "name": "_phone",
          "type": "string"
        },
        {
          "name": "_password1",
          "type": "string"
        },
        {
          "name": "_identity",
          "type": "uint256"
        }
      ],
      "name": "registerAccount",
      "outputs": [],
      "payable": false,
      "stateMutability": "nonpayable",
      "type": "function"
    },
    {
      "constant": false,
      "inputs": [
        {
          "name": "_new_farmer",
          "type": "address"
        },
        {
          "name": "_name",
          "type": "string"
        },
        {
          "name": "_res_address",
          "type": "string"
        },
        {
          "name": "_email",
          "type": "string"
        },
        {
          "name": "_phone",
          "type": "string"
        },
        {
          "name": "_aadhaar",
          "type": "uint256"
        },
        {
          "name": "_asSeller",
          "type": "bool"
        }
      ],
      "name": "RegisterFarmer",
      "outputs": [],
      "payable": false,
      "stateMutability": "nonpayable",
      "type": "function"
    },
    {
      "constant": false,
      "inputs": [
        {
          "name": "farmer",
          "type": "address"
        }
      ],
      "name": "UnRegisterFarmer",
      "outputs": [],
      "payable": false,
      "stateMutability": "nonpayable",
      "type": "function"
    },
    {
      "constant": false,
      "inputs": [
        {
          "name": "cattle",
          "type": "address"
        },
        {
          "name": "baseprice",
          "type": "uint256"
        }
      ],
      "name": "SetBasePriceForCattle",
      "outputs": [],
      "payable": false,
      "stateMutability": "nonpayable",
      "type": "function"
    },
    {
      "constant": false,
      "inputs": [
        {
          "name": "cattle",
          "type": "address"
        },
        {
          "name": "acutionperiod",
          "type": "uint256"
        }
      ],
      "name": "StartAuctionForCattle",
      "outputs": [],
      "payable": false,
      "stateMutability": "nonpayable",
      "type": "function"
    },
    {
      "constant": false,
      "inputs": [
        {
          "name": "cattle",
          "type": "address"
        }
      ],
      "name": "EndAuctionForCattle",
      "outputs": [],
      "payable": false,
      "stateMutability": "nonpayable",
      "type": "function"
    },
    {
      "constant": false,
      "inputs": [
        {
          "name": "cattle",
          "type": "address"
        },
        {
          "name": "baseprice",
          "type": "uint256"
        }
      ],
      "name": "SetBasePriceFoCowMilk",
      "outputs": [],
      "payable": false,
      "stateMutability": "nonpayable",
      "type": "function"
    },
    {
      "constant": false,
      "inputs": [
        {
          "name": "cattle",
          "type": "address"
        },
        {
          "name": "acutionperiod",
          "type": "uint256"
        },
        {
          "name": "milkInLiters",
          "type": "uint256"
        }
      ],
      "name": "StartAuctionForCowMilk",
      "outputs": [],
      "payable": false,
      "stateMutability": "nonpayable",
      "type": "function"
    },
    {
      "constant": false,
      "inputs": [
        {
          "name": "cattle",
          "type": "address"
        }
      ],
      "name": "EndAuctionForCowMilk",
      "outputs": [],
      "payable": false,
      "stateMutability": "nonpayable",
      "type": "function"
    },
    {
      "constant": false,
      "inputs": [
        {
          "name": "_new_cattle",
          "type": "address"
        },
        {
          "name": "_name",
          "type": "string"
        },
        {
          "name": "_owner",
          "type": "address"
        },
        {
          "name": "_age",
          "type": "uint256"
        },
        {
          "name": "_breed",
          "type": "string"
        },
        {
          "name": "_lastCalfBirth",
          "type": "uint256"
        },
        {
          "name": "_isCow",
          "type": "bool"
        },
        {
          "name": "_milkInLiters",
          "type": "uint256"
        },
        {
          "name": "_health",
          "type": "string"
        },
        {
          "name": "_description",
          "type": "string"
        }
      ],
      "name": "RegisterCattle",
      "outputs": [],
      "payable": false,
      "stateMutability": "nonpayable",
      "type": "function"
    },
    {
      "constant": false,
      "inputs": [
        {
          "name": "vid",
          "type": "uint256"
        },
        {
          "name": "cattle",
          "type": "address"
        },
        {
          "name": "health",
          "type": "string"
        }
      ],
      "name": "RequestHealthConfirmation",
      "outputs": [],
      "payable": false,
      "stateMutability": "nonpayable",
      "type": "function"
    },
    {
      "constant": false,
      "inputs": [
        {
          "name": "cattle",
          "type": "address"
        }
      ],
      "name": "HealthConfirmed",
      "outputs": [],
      "payable": false,
      "stateMutability": "nonpayable",
      "type": "function"
    },
    {
      "constant": false,
      "inputs": [],
      "name": "UpdateCattleHealth",
      "outputs": [],
      "payable": false,
      "stateMutability": "nonpayable",
      "type": "function"
    },
    {
      "constant": false,
      "inputs": [
        {
          "name": "cattle",
          "type": "address"
        }
      ],
      "name": "UnRegisterCattle",
      "outputs": [],
      "payable": false,
      "stateMutability": "nonpayable",
      "type": "function"
    },
    {
      "constant": false,
      "inputs": [
        {
          "name": "buyer",
          "type": "address"
        },
        {
          "name": "breedofcow",
          "type": "string"
        },
        {
          "name": "ageofcow",
          "type": "uint256"
        },
        {
          "name": "milk",
          "type": "bool"
        },
        {
          "name": "milkInLiters",
          "type": "uint256"
        }
      ],
      "name": "PublishRequirement",
      "outputs": [],
      "payable": false,
      "stateMutability": "nonpayable",
      "type": "function"
    },
    {
      "constant": false,
      "inputs": [
        {
          "name": "buyer",
          "type": "address"
        },
        {
          "name": "rating",
          "type": "uint256"
        }
      ],
      "name": "RateBuyer",
      "outputs": [],
      "payable": false,
      "stateMutability": "nonpayable",
      "type": "function"
    },
    {
      "constant": false,
      "inputs": [
        {
          "name": "seller",
          "type": "address"
        },
        {
          "name": "rating",
          "type": "uint256"
        }
      ],
      "name": "RateSeller",
      "outputs": [],
      "payable": false,
      "stateMutability": "nonpayable",
      "type": "function"
    },
    {
      "constant": false,
      "inputs": [
        {
          "name": "dairy",
          "type": "address"
        },
        {
          "name": "rating",
          "type": "uint256"
        }
      ],
      "name": "RateDairy",
      "outputs": [],
      "payable": false,
      "stateMutability": "nonpayable",
      "type": "function"
    },
    {
      "constant": false,
      "inputs": [
        {
          "name": "_new_dairy",
          "type": "address"
        },
        {
          "name": "_name",
          "type": "string"
        },
        {
          "name": "_res_address",
          "type": "string"
        },
        {
          "name": "_email",
          "type": "string"
        },
        {
          "name": "_phone",
          "type": "string"
        },
        {
          "name": "_description",
          "type": "string"
        }
      ],
      "name": "RegisterDairy",
      "outputs": [],
      "payable": false,
      "stateMutability": "nonpayable",
      "type": "function"
    },
    {
      "constant": false,
      "inputs": [
        {
          "name": "cattle",
          "type": "address"
        },
        {
          "name": "price",
          "type": "uint256"
        }
      ],
      "name": "SetPriceForCattle",
      "outputs": [],
      "payable": false,
      "stateMutability": "nonpayable",
      "type": "function"
    },
    {
      "constant": false,
      "inputs": [
        {
          "name": "dairy",
          "type": "address"
        }
      ],
      "name": "UnRegisterDairy",
      "outputs": [],
      "payable": false,
      "stateMutability": "nonpayable",
      "type": "function"
    },
    {
      "constant": false,
      "inputs": [
        {
          "name": "_new_veterinarian",
          "type": "address"
        },
        {
          "name": "_name",
          "type": "string"
        },
        {
          "name": "_res_address",
          "type": "string"
        },
        {
          "name": "_email",
          "type": "string"
        },
        {
          "name": "_phone",
          "type": "string"
        },
        {
          "name": "_description",
          "type": "string"
        }
      ],
      "name": "RegisterVeterinarian",
      "outputs": [],
      "payable": false,
      "stateMutability": "nonpayable",
      "type": "function"
    },
    {
      "constant": false,
      "inputs": [
        {
          "name": "cattle",
          "type": "address"
        },
        {
          "name": "health",
          "type": "string"
        }
      ],
      "name": "ConfirmHealth",
      "outputs": [],
      "payable": false,
      "stateMutability": "nonpayable",
      "type": "function"
    },
    {
      "constant": false,
      "inputs": [],
      "name": "GetHealthConfirmationRequests",
      "outputs": [],
      "payable": false,
      "stateMutability": "nonpayable",
      "type": "function"
    },
    {
      "constant": false,
      "inputs": [
        {
          "name": "veterinarian",
          "type": "address"
        }
      ],
      "name": "UnRegisterVeterinarian",
      "outputs": [],
      "payable": false,
      "stateMutability": "nonpayable",
      "type": "function"
    }
  ],
  "bytecode": "0x608060405260006005556000600655600060075534801561001f57600080fd5b50336000806101000a81548173ffffffffffffffffffffffffffffffffffffffff021916908373ffffffffffffffffffffffffffffffffffffffff160217905550613c368061006f6000396000f3fe608060405234801561001057600080fd5b50600436106101c45760003560e01c8063b380ad49116100f9578063ef24f7c911610097578063f58bdcda11610071578063f58bdcda14611891578063f8b55cbc146118e9578063fa1ffd481461192d578063fb9efd5e14611a08576101c4565b8063ef24f7c9146117f5578063f05bbb69146117ff578063f46a8a8c1461184d576101c4565b8063cb53a608116100d3578063cb53a608146116c7578063da54cf4c1461170b578063dbe97c8014611763578063ea6e5847146117b1576101c4565b8063b380ad49146113b3578063bca399681461162b578063be87cf9114611679576101c4565b80636e2c358d116101665780639a687932116101405780639a68793214610dbd578063a3d93a7a14610dc7578063a4f4ff9914610ec2578063a8a14857146110fd576101c4565b80636e2c358d146109f457806386b7777314610d2b578063976c6ba814610d6f576101c4565b806327283b2e116101a257806327283b2e146105465780633febc6901461087d57806340e8698f1461096257806342175681146109a6576101c4565b806304498dad146101c957806312a5bc5b146104b45780631d858549146104f8575b600080fd5b6104b260048036036101408110156101e057600080fd5b81019080803573ffffffffffffffffffffffffffffffffffffffff1690602001909291908035906020019064010000000081111561021d57600080fd5b82018360208201111561022f57600080fd5b8035906020019184600183028401116401000000008311171561025157600080fd5b91908080601f016020809104026020016040519081016040528093929190818152602001838380828437600081840152601f19601f820116905080830192505050505050509192919290803573ffffffffffffffffffffffffffffffffffffffff16906020019092919080359060200190929190803590602001906401000000008111156102de57600080fd5b8201836020820111156102f057600080fd5b8035906020019184600183028401116401000000008311171561031257600080fd5b91908080601f016020809104026020016040519081016040528093929190818152602001838380828437600081840152601f19601f82011690508083019250505050505050919291929080359060200190929190803515159060200190929190803590602001909291908035906020019064010000000081111561039557600080fd5b8201836020820111156103a757600080fd5b803590602001918460018302840111640100000000831117156103c957600080fd5b91908080601f016020809104026020016040519081016040528093929190818152602001838380828437600081840152601f19601f8201169050808301925050505050505091929192908035906020019064010000000081111561042c57600080fd5b82018360208201111561043e57600080fd5b8035906020019184600183028401116401000000008311171561046057600080fd5b91908080601f016020809104026020016040519081016040528093929190818152602001838380828437600081840152601f19601f820116905080830192505050505050509192919290505050611d33565b005b6104f6600480360360208110156104ca57600080fd5b81019080803573ffffffffffffffffffffffffffffffffffffffff16906020019092919050505061222e565b005b6105446004803603604081101561050e57600080fd5b81019080803573ffffffffffffffffffffffffffffffffffffffff16906020019092919080359060200190929190505050612366565b005b61087b600480360360c081101561055c57600080fd5b81019080803573ffffffffffffffffffffffffffffffffffffffff1690602001909291908035906020019064010000000081111561059957600080fd5b8201836020820111156105ab57600080fd5b803590602001918460018302840111640100000000831117156105cd57600080fd5b91908080601f016020809104026020016040519081016040528093929190818152602001838380828437600081840152601f19601f8201169050808301925050505050505091929192908035906020019064010000000081111561063057600080fd5b82018360208201111561064257600080fd5b8035906020019184600183028401116401000000008311171561066457600080fd5b91908080601f016020809104026020016040519081016040528093929190818152602001838380828437600081840152601f19601f820116905080830192505050505050509192919290803590602001906401000000008111156106c757600080fd5b8201836020820111156106d957600080fd5b803590602001918460018302840111640100000000831117156106fb57600080fd5b91908080601f016020809104026020016040519081016040528093929190818152602001838380828437600081840152601f19601f8201169050808301925050505050505091929192908035906020019064010000000081111561075e57600080fd5b82018360208201111561077057600080fd5b8035906020019184600183028401116401000000008311171561079257600080fd5b91908080601f016020809104026020016040519081016040528093929190818152602001838380828437600081840152601f19601f820116905080830192505050505050509192919290803590602001906401000000008111156107f557600080fd5b82018360208201111561080757600080fd5b8035906020019184600183028401116401000000008311171561082957600080fd5b91908080601f016020809104026020016040519081016040528093929190818152602001838380828437600081840152601f19601f82011690508083019250505050505050919291929050505061236a565b005b6109606004803603606081101561089357600080fd5b8101908080359060200190929190803573ffffffffffffffffffffffffffffffffffffffff169060200190929190803590602001906401000000008111156108da57600080fd5b8201836020820111156108ec57600080fd5b8035906020019184600183028401116401000000008311171561090e57600080fd5b91908080601f016020809104026020016040519081016040528093929190818152602001838380828437600081840152601f19601f8201169050808301925050505050505091929192905050506125bf565b005b6109a46004803603602081101561097857600080fd5b81019080803573ffffffffffffffffffffffffffffffffffffffff1690602001909291905050506125c4565b005b6109f2600480360360408110156109bc57600080fd5b81019080803573ffffffffffffffffffffffffffffffffffffffff169060200190929190803590602001909291905050506126ec565b005b610d29600480360360c0811015610a0a57600080fd5b81019080803573ffffffffffffffffffffffffffffffffffffffff16906020019092919080359060200190640100000000811115610a4757600080fd5b820183602082011115610a5957600080fd5b80359060200191846001830284011164010000000083111715610a7b57600080fd5b91908080601f016020809104026020016040519081016040528093929190818152602001838380828437600081840152601f19601f82011690508083019250505050505050919291929080359060200190640100000000811115610ade57600080fd5b820183602082011115610af057600080fd5b80359060200191846001830284011164010000000083111715610b1257600080fd5b91908080601f016020809104026020016040519081016040528093929190818152602001838380828437600081840152601f19601f82011690508083019250505050505050919291929080359060200190640100000000811115610b7557600080fd5b820183602082011115610b8757600080fd5b80359060200191846001830284011164010000000083111715610ba957600080fd5b91908080601f016020809104026020016040519081016040528093929190818152602001838380828437600081840152601f19601f82011690508083019250505050505050919291929080359060200190640100000000811115610c0c57600080fd5b820183602082011115610c1e57600080fd5b80359060200191846001830284011164010000000083111715610c4057600080fd5b91908080601f016020809104026020016040519081016040528093929190818152602001838380828437600081840152601f19601f82011690508083019250505050505050919291929080359060200190640100000000811115610ca357600080fd5b820183602082011115610cb557600080fd5b80359060200191846001830284011164010000000083111715610cd757600080fd5b91908080601f016020809104026020016040519081016040528093929190818152602001838380828437600081840152601f19601f8201169050808301925050505050505091929192905050506126f0565b005b610d6d60048036036020811015610d4157600080fd5b81019080803573ffffffffffffffffffffffffffffffffffffffff169060200190929190505050612945565b005b610dbb60048036036040811015610d8557600080fd5b81019080803573ffffffffffffffffffffffffffffffffffffffff16906020019092919080359060200190929190505050612948565b005b610dc561294c565b005b610ec0600480360360a0811015610ddd57600080fd5b81019080803573ffffffffffffffffffffffffffffffffffffffff16906020019092919080359060200190640100000000811115610e1a57600080fd5b820183602082011115610e2c57600080fd5b80359060200191846001830284011164010000000083111715610e4e57600080fd5b91908080601f016020809104026020016040519081016040528093929190818152602001838380828437600081840152601f19601f820116905080830192505050505050509192919290803590602001909291908035151590602001909291908035906020019092919050505061294e565b005b610f0460048036036020811015610ed857600080fd5b81019080803573ffffffffffffffffffffffffffffffffffffffff16906020019092919050505061295d565b604051808781526020018673ffffffffffffffffffffffffffffffffffffffff1673ffffffffffffffffffffffffffffffffffffffff16815260200180602001806020018060200180602001858103855289818151815260200191508051906020019080838360005b83811015610f88578082015181840152602081019050610f6d565b50505050905090810190601f168015610fb55780820380516001836020036101000a031916815260200191505b50858103845288818151815260200191508051906020019080838360005b83811015610fee578082015181840152602081019050610fd3565b50505050905090810190601f16801561101b5780820380516001836020036101000a031916815260200191505b50858103835287818151815260200191508051906020019080838360005b83811015611054578082015181840152602081019050611039565b50505050905090810190601f1680156110815780820380516001836020036101000a031916815260200191505b50858103825286818151815260200191508051906020019080838360005b838110156110ba57808201518184015260208101905061109f565b50505050905090810190601f1680156110e75780820380516001836020036101000a031916815260200191505b509a505050505050505050505060405180910390f35b6113b1600480360360e081101561111357600080fd5b81019080803573ffffffffffffffffffffffffffffffffffffffff1690602001909291908035906020019064010000000081111561115057600080fd5b82018360208201111561116257600080fd5b8035906020019184600183028401116401000000008311171561118457600080fd5b91908080601f016020809104026020016040519081016040528093929190818152602001838380828437600081840152601f19601f820116905080830192505050505050509192919290803590602001906401000000008111156111e757600080fd5b8201836020820111156111f957600080fd5b8035906020019184600183028401116401000000008311171561121b57600080fd5b91908080601f016020809104026020016040519081016040528093929190818152602001838380828437600081840152601f19601f8201169050808301925050505050505091929192908035906020019064010000000081111561127e57600080fd5b82018360208201111561129057600080fd5b803590602001918460018302840111640100000000831117156112b257600080fd5b91908080601f016020809104026020016040519081016040528093929190818152602001838380828437600081840152601f19601f8201169050808301925050505050505091929192908035906020019064010000000081111561131557600080fd5b82018360208201111561132757600080fd5b8035906020019184600183028401116401000000008311171561134957600080fd5b91908080601f016020809104026020016040519081016040528093929190818152602001838380828437600081840152601f19601f82011690508083019250505050505050919291929080359060200190929190803515159060200190929190505050612c19565b005b6113df600480360360208110156113c957600080fd5b8101908080359060200190929190505050612eb5565b604051808c81526020018b73ffffffffffffffffffffffffffffffffffffffff1673ffffffffffffffffffffffffffffffffffffffff1681526020018a73ffffffffffffffffffffffffffffffffffffffff1673ffffffffffffffffffffffffffffffffffffffff168152602001806020018981526020018060200188815260200187151515158152602001868152602001806020018060200185810385528d818151815260200191508051906020019080838360005b838110156114b1578082015181840152602081019050611496565b50505050905090810190601f1680156114de5780820380516001836020036101000a031916815260200191505b5085810384528b818151815260200191508051906020019080838360005b838110156115175780820151818401526020810190506114fc565b50505050905090810190601f1680156115445780820380516001836020036101000a031916815260200191505b50858103835287818151815260200191508051906020019080838360005b8381101561157d578082015181840152602081019050611562565b50505050905090810190601f1680156115aa5780820380516001836020036101000a031916815260200191505b50858103825286818151815260200191508051906020019080838360005b838110156115e35780820151818401526020810190506115c8565b50505050905090810190601f1680156116105780820380516001836020036101000a031916815260200191505b509f5050505050505050505050505050505060405180910390f35b6116776004803603604081101561164157600080fd5b81019080803573ffffffffffffffffffffffffffffffffffffffff169060200190929190803590602001909291905050506131bc565b005b6116c56004803603604081101561168f57600080fd5b81019080803573ffffffffffffffffffffffffffffffffffffffff169060200190929190803590602001909291905050506131c0565b005b611709600480360360208110156116dd57600080fd5b81019080803573ffffffffffffffffffffffffffffffffffffffff1690602001909291905050506131c4565b005b6117616004803603606081101561172157600080fd5b81019080803573ffffffffffffffffffffffffffffffffffffffff16906020019092919080359060200190929190803590602001909291905050506131c7565b005b6117af6004803603604081101561177957600080fd5b81019080803573ffffffffffffffffffffffffffffffffffffffff169060200190929190803590602001909291905050506131cc565b005b6117f3600480360360208110156117c757600080fd5b81019080803573ffffffffffffffffffffffffffffffffffffffff16906020019092919050505061326d565b005b6117fd6133a5565b005b61184b6004803603604081101561181557600080fd5b81019080803573ffffffffffffffffffffffffffffffffffffffff169060200190929190803590602001909291905050506133a7565b005b61188f6004803603602081101561186357600080fd5b81019080803573ffffffffffffffffffffffffffffffffffffffff1690602001909291905050506133ab565b005b6118d3600480360360208110156118a757600080fd5b81019080803573ffffffffffffffffffffffffffffffffffffffff1690602001909291905050506135e9565b6040518082815260200191505060405180910390f35b61192b600480360360208110156118ff57600080fd5b81019080803573ffffffffffffffffffffffffffffffffffffffff169060200190929190505050613601565b005b611a066004803603604081101561194357600080fd5b81019080803573ffffffffffffffffffffffffffffffffffffffff1690602001909291908035906020019064010000000081111561198057600080fd5b82018360208201111561199257600080fd5b803590602001918460018302840111640100000000831117156119b457600080fd5b91908080601f016020809104026020016040519081016040528093929190818152602001838380828437600081840152601f19601f820116905080830192505050505050509192919290505050613604565b005b611d31600480360360e0811015611a1e57600080fd5b810190808035906020019092919080359060200190640100000000811115611a4557600080fd5b820183602082011115611a5757600080fd5b80359060200191846001830284011164010000000083111715611a7957600080fd5b91908080601f016020809104026020016040519081016040528093929190818152602001838380828437600081840152601f19601f82011690508083019250505050505050919291929080359060200190640100000000811115611adc57600080fd5b820183602082011115611aee57600080fd5b80359060200191846001830284011164010000000083111715611b1057600080fd5b91908080601f016020809104026020016040519081016040528093929190818152602001838380828437600081840152601f19601f82011690508083019250505050505050919291929080359060200190640100000000811115611b7357600080fd5b820183602082011115611b8557600080fd5b80359060200191846001830284011164010000000083111715611ba757600080fd5b91908080601f016020809104026020016040519081016040528093929190818152602001838380828437600081840152601f19601f82011690508083019250505050505050919291929080359060200190640100000000811115611c0a57600080fd5b820183602082011115611c1c57600080fd5b80359060200191846001830284011164010000000083111715611c3e57600080fd5b91908080601f016020809104026020016040519081016040528093929190818152602001838380828437600081840152601f19601f82011690508083019250505050505050919291929080359060200190640100000000811115611ca157600080fd5b820183602082011115611cb357600080fd5b80359060200191846001830284011164010000000083111715611cd557600080fd5b91908080601f016020809104026020016040519081016040528093929190818152602001838380828437600081840152601f19601f82011690508083019250505050505050919291929080359060200190929190505050613608565b005b60008090505b600d80549050811015611e16578a73ffffffffffffffffffffffffffffffffffffffff16600d8281548110611d6a57fe5b90600052602060002090600b020160010160009054906101000a900473ffffffffffffffffffffffffffffffffffffffff1673ffffffffffffffffffffffffffffffffffffffff161415611e09576040517f08c379a0000000000000000000000000000000000000000000000000000000008152600401808060200182810382526026815260200180613b196026913960400191505060405180910390fd5b8080600101915050611d39565b50600d60405180610160016040528060056000815460010191905081905581526020018c73ffffffffffffffffffffffffffffffffffffffff1681526020013373ffffffffffffffffffffffffffffffffffffffff1681526020018b81526020018981526020018881526020018781526020018615158152602001858152602001848152602001838152509080600181540180825580915050906001820390600052602060002090600b0201600090919290919091506000820151816000015560208201518160010160006101000a81548173ffffffffffffffffffffffffffffffffffffffff021916908373ffffffffffffffffffffffffffffffffffffffff16021790555060408201518160020160006101000a81548173ffffffffffffffffffffffffffffffffffffffff021916908373ffffffffffffffffffffffffffffffffffffffff1602179055506060820151816003019080519060200190611f809291906139a4565b506080820151816004015560a0820151816005019080519060200190611fa79291906139a4565b5060c0820151816006015560e08201518160070160006101000a81548160ff0219169083151502179055506101008201518160080155610120820151816009019080519060200190611ffa9291906139a4565b5061014082015181600a0190805190602001906120189291906139a4565b5050505060008090505b600c80549050811015612221573373ffffffffffffffffffffffffffffffffffffffff16600c828154811061205357fe5b906000526020600020906006020160010160009054906101000a900473ffffffffffffffffffffffffffffffffffffffff1673ffffffffffffffffffffffffffffffffffffffff16141561221457600c81815481106120ae57fe5b9060005260206000209060060201600860008d73ffffffffffffffffffffffffffffffffffffffff1673ffffffffffffffffffffffffffffffffffffffff168152602001908152602001600020600082015481600001556001820160009054906101000a900473ffffffffffffffffffffffffffffffffffffffff168160010160006101000a81548173ffffffffffffffffffffffffffffffffffffffff021916908373ffffffffffffffffffffffffffffffffffffffff16021790555060028201816002019080546001816001161561010002031660029004612193929190613a24565b50600382018160030190805460018160011615610100020316600290046121bb929190613a24565b50600482018160040190805460018160011615610100020316600290046121e3929190613a24565b506005820181600501908054600181600116156101000203166002900461220b929190613a24565b50905050612221565b8080600101915050612022565b5050505050505050505050565b60008090505b600f80549050811015612362578173ffffffffffffffffffffffffffffffffffffffff16600f828154811061226557fe5b906000526020600020906007020160010160009054906101000a900473ffffffffffffffffffffffffffffffffffffffff1673ffffffffffffffffffffffffffffffffffffffff16141561235557600f81815481106122c057fe5b90600052602060002090600702016000808201600090556001820160006101000a81549073ffffffffffffffffffffffffffffffffffffffff021916905560028201600061230e9190613aab565b60038201600061231e9190613aab565b60048201600061232e9190613aab565b60058201600061233e9190613aab565b60068201600061234e9190613aab565b5050612362565b8080600101915050612234565b5050565b5050565b60008090505b600f8054905081101561244d578673ffffffffffffffffffffffffffffffffffffffff16600f82815481106123a157fe5b906000526020600020906007020160010160009054906101000a900473ffffffffffffffffffffffffffffffffffffffff1673ffffffffffffffffffffffffffffffffffffffff161415612440576040517f08c379a000000000000000000000000000000000000000000000000000000000815260040180806020018281038252602c815260200180613b8d602c913960400191505060405180910390fd5b8080600101915050612370565b50600f6040518060e0016040528060076000815460010191905081905581526020018873ffffffffffffffffffffffffffffffffffffffff16815260200187815260200186815260200185815260200184815260200183815250908060018154018082558091505090600182039060005260206000209060070201600090919290919091506000820151816000015560208201518160010160006101000a81548173ffffffffffffffffffffffffffffffffffffffff021916908373ffffffffffffffffffffffffffffffffffffffff160217905550604082015181600201908051906020019061253f9291906139a4565b50606082015181600301908051906020019061255c9291906139a4565b5060808201518160040190805190602001906125799291906139a4565b5060a08201518160050190805190602001906125969291906139a4565b5060c08201518160060190805190602001906125b39291906139a4565b50505050505050505050565b505050565b60008090505b600c805490508110156126e8578173ffffffffffffffffffffffffffffffffffffffff16600c82815481106125fb57fe5b906000526020600020906006020160010160009054906101000a900473ffffffffffffffffffffffffffffffffffffffff1673ffffffffffffffffffffffffffffffffffffffff1614156126db57600c818154811061265657fe5b90600052602060002090600602016000808201600090556001820160006101000a81549073ffffffffffffffffffffffffffffffffffffffff02191690556002820160006126a49190613aab565b6003820160006126b49190613aab565b6004820160006126c49190613aab565b6005820160006126d49190613aab565b50506126e8565b80806001019150506125ca565b5050565b5050565b60008090505b600e805490508110156127d3578673ffffffffffffffffffffffffffffffffffffffff16600e828154811061272757fe5b906000526020600020906007020160010160009054906101000a900473ffffffffffffffffffffffffffffffffffffffff1673ffffffffffffffffffffffffffffffffffffffff1614156127c6576040517f08c379a0000000000000000000000000000000000000000000000000000000008152600401808060200182810382526025815260200180613b3f6025913960400191505060405180910390fd5b80806001019150506126f6565b50600e6040518060e0016040528060066000815460010191905081905581526020018873ffffffffffffffffffffffffffffffffffffffff16815260200187815260200186815260200185815260200184815260200183815250908060018154018082558091505090600182039060005260206000209060070201600090919290919091506000820151816000015560208201518160010160006101000a81548173ffffffffffffffffffffffffffffffffffffffff021916908373ffffffffffffffffffffffffffffffffffffffff16021790555060408201518160020190805190602001906128c59291906139a4565b5060608201518160030190805190602001906128e29291906139a4565b5060808201518160040190805190602001906128ff9291906139a4565b5060a082015181600501908051906020019061291c9291906139a4565b5060c08201518160060190805190602001906129399291906139a4565b50505050505050505050565b50565b5050565b565b6129566139a2565b5050505050565b60086020528060005260406000206000915090508060000154908060010160009054906101000a900473ffffffffffffffffffffffffffffffffffffffff1690806002018054600181600116156101000203166002900480601f016020809104026020016040519081016040528092919081815260200182805460018160011615610100020316600290048015612a355780601f10612a0a57610100808354040283529160200191612a35565b820191906000526020600020905b815481529060010190602001808311612a1857829003601f168201915b505050505090806003018054600181600116156101000203166002900480601f016020809104026020016040519081016040528092919081815260200182805460018160011615610100020316600290048015612ad35780601f10612aa857610100808354040283529160200191612ad3565b820191906000526020600020905b815481529060010190602001808311612ab657829003601f168201915b505050505090806004018054600181600116156101000203166002900480601f016020809104026020016040519081016040528092919081815260200182805460018160011615610100020316600290048015612b715780601f10612b4657610100808354040283529160200191612b71565b820191906000526020600020905b815481529060010190602001808311612b5457829003601f168201915b505050505090806005018054600181600116156101000203166002900480601f016020809104026020016040519081016040528092919081815260200182805460018160011615610100020316600290048015612c0f5780601f10612be457610100808354040283529160200191612c0f565b820191906000526020600020905b815481529060010190602001808311612bf257829003601f168201915b5050505050905086565b6000821415612c90576040517f08c379a00000000000000000000000000000000000000000000000000000000081526004018080602001828103825260178152602001807f496e76616c69642061616468616172206e756d6265722100000000000000000081525060200191505060405180910390fd5b60008090505b600c80549050811015612d73578773ffffffffffffffffffffffffffffffffffffffff16600c8281548110612cc757fe5b906000526020600020906006020160010160009054906101000a900473ffffffffffffffffffffffffffffffffffffffff1673ffffffffffffffffffffffffffffffffffffffff161415612d66576040517f08c379a0000000000000000000000000000000000000000000000000000000008152600401808060200182810382526026815260200180613bb96026913960400191505060405180910390fd5b8080600101915050612c96565b50600c6040518060c001604052808481526020018973ffffffffffffffffffffffffffffffffffffffff16815260200188815260200187815260200186815260200185815250908060018154018082558091505090600182039060005260206000209060060201600090919290919091506000820151816000015560208201518160010160006101000a81548173ffffffffffffffffffffffffffffffffffffffff021916908373ffffffffffffffffffffffffffffffffffffffff1602179055506040820151816002019080519060200190612e519291906139a4565b506060820151816003019080519060200190612e6e9291906139a4565b506080820151816004019080519060200190612e8b9291906139a4565b5060a0820151816005019080519060200190612ea89291906139a4565b5050505050505050505050565b600a6020528060005260406000206000915090508060000154908060010160009054906101000a900473ffffffffffffffffffffffffffffffffffffffff16908060020160009054906101000a900473ffffffffffffffffffffffffffffffffffffffff1690806003018054600181600116156101000203166002900480601f016020809104026020016040519081016040528092919081815260200182805460018160011615610100020316600290048015612fb35780601f10612f8857610100808354040283529160200191612fb3565b820191906000526020600020905b815481529060010190602001808311612f9657829003601f168201915b505050505090806004015490806005018054600181600116156101000203166002900480601f0160208091040260200160405190810160405280929190818152602001828054600181600116156101000203166002900480156130575780601f1061302c57610100808354040283529160200191613057565b820191906000526020600020905b81548152906001019060200180831161303a57829003601f168201915b5050505050908060060154908060070160009054906101000a900460ff1690806008015490806009018054600181600116156101000203166002900480601f0160208091040260200160405190810160405280929190818152602001828054600181600116156101000203166002900480156131145780601f106130e957610100808354040283529160200191613114565b820191906000526020600020905b8154815290600101906020018083116130f757829003601f168201915b50505050509080600a018054600181600116156101000203166002900480601f0160208091040260200160405190810160405280929190818152602001828054600181600116156101000203166002900480156131b25780601f10613187576101008083540402835291602001916131b2565b820191906000526020600020905b81548152906001019060200180831161319557829003601f168201915b505050505090508b565b5050565b5050565b50565b505050565b60058111613225576040517f08c379a000000000000000000000000000000000000000000000000000000000815260040180806020018281038252602c815260200180613bdf602c913960400191505060405180910390fd5b80600960008473ffffffffffffffffffffffffffffffffffffffff1673ffffffffffffffffffffffffffffffffffffffff168152602001908152602001600020819055505050565b60008090505b600e805490508110156133a1578173ffffffffffffffffffffffffffffffffffffffff16600e82815481106132a457fe5b906000526020600020906007020160010160009054906101000a900473ffffffffffffffffffffffffffffffffffffffff1673ffffffffffffffffffffffffffffffffffffffff16141561339457600e81815481106132ff57fe5b90600052602060002090600702016000808201600090556001820160006101000a81549073ffffffffffffffffffffffffffffffffffffffff021916905560028201600061334d9190613aab565b60038201600061335d9190613aab565b60048201600061336d9190613aab565b60058201600061337d9190613aab565b60068201600061338d9190613aab565b50506133a1565b8080600101915050613273565b5050565b565b5050565b60008090505b600d805490508110156135e5578173ffffffffffffffffffffffffffffffffffffffff16600d82815481106133e257fe5b90600052602060002090600b020160010160009054906101000a900473ffffffffffffffffffffffffffffffffffffffff1673ffffffffffffffffffffffffffffffffffffffff1614156135d8573373ffffffffffffffffffffffffffffffffffffffff16600d828154811061345457fe5b90600052602060002090600b020160020160009054906101000a900473ffffffffffffffffffffffffffffffffffffffff1673ffffffffffffffffffffffffffffffffffffffff1614156134f3576040517f08c379a0000000000000000000000000000000000000000000000000000000008152600401808060200182810382526029815260200180613b646029913960400191505060405180910390fd5b600d818154811061350057fe5b90600052602060002090600b02016000808201600090556001820160006101000a81549073ffffffffffffffffffffffffffffffffffffffff02191690556002820160006101000a81549073ffffffffffffffffffffffffffffffffffffffff02191690556003820160006135759190613aab565b600482016000905560058201600061358d9190613aab565b60068201600090556007820160006101000a81549060ff021916905560088201600090556009820160006135c19190613aab565b600a820160006135d19190613aab565b50506135e5565b80806001019150506133b1565b5050565b60096020528060005260406000206000915090505481565b50565b5050565b600081141561367f576040517f08c379a00000000000000000000000000000000000000000000000000000000081526004018080602001828103825260188152602001807f496e76616c6964206964656e74697479206e756d62657221000000000000000081525060200191505060405180910390fd5b60018714156137e65760008090505b600c805490508110156136a857808060010191505061368e565b50600c6040518060c001604052808381526020013373ffffffffffffffffffffffffffffffffffffffff16815260200188815260200186815260200187815260200185815250908060018154018082558091505090600182039060005260206000209060060201600090919290919091506000820151816000015560208201518160010160006101000a81548173ffffffffffffffffffffffffffffffffffffffff021916908373ffffffffffffffffffffffffffffffffffffffff16021790555060408201518160020190805190602001906137869291906139a4565b5060608201518160030190805190602001906137a39291906139a4565b5060808201518160040190805190602001906137c09291906139a4565b5060a08201518160050190805190602001906137dd9291906139a4565b50505050613999565b60028714156137f457613998565b60038714156139975760008090505b600e8054905081101561381d578080600101915050613803565b50600e6040518060e0016040528060066000815460010191905081905581526020013373ffffffffffffffffffffffffffffffffffffffff16815260200188815260200186815260200187815260200185815260200160405180602001604052806000815250815250908060018154018082558091505090600182039060005260206000209060070201600090919290919091506000820151816000015560208201518160010160006101000a81548173ffffffffffffffffffffffffffffffffffffffff021916908373ffffffffffffffffffffffffffffffffffffffff160217905550604082015181600201908051906020019061391e9291906139a4565b50606082015181600301908051906020019061393b9291906139a4565b5060808201518160040190805190602001906139589291906139a4565b5060a08201518160050190805190602001906139759291906139a4565b5060c08201518160060190805190602001906139929291906139a4565b505050505b5b5b50505050505050565b565b828054600181600116156101000203166002900490600052602060002090601f016020900481019282601f106139e557805160ff1916838001178555613a13565b82800160010185558215613a13579182015b82811115613a125782518255916020019190600101906139f7565b5b509050613a209190613af3565b5090565b828054600181600116156101000203166002900490600052602060002090601f016020900481019282601f10613a5d5780548555613a9a565b82800160010185558215613a9a57600052602060002091601f016020900482015b82811115613a99578254825591600101919060010190613a7e565b5b509050613aa79190613af3565b5090565b50805460018160011615610100020316600290046000825580601f10613ad15750613af0565b601f016020900490600052602060002090810190613aef9190613af3565b5b50565b613b1591905b80821115613b11576000816000905550600101613af9565b5090565b9056fe436174746c6520616c726561647920616464656420696e746f20746865206e6574776f726b21446169727920616c726561647920616464656420696e746f20746865206e6574776f726b214661726d65722073686f756c6420626520746865206f776e6572206f662074686520636174746c65215665746572696e617269616e20616c726561647920616464656420696e746f20746865206e6574776f726b214661726d657220616c726561647920616464656420696e746f20746865206e6574776f726b21526174696e672073686f756c642062652077697468696e207468652072616e6765206f66203120746f203521a165627a7a723058203dbd672c651e43263ee6db8511a9f91c515ab3add6d6eb8ea825794f70a5a4e50029",
  "source": "pragma solidity ^0.5.8;\n\nimport \"./Owned.sol\";\nimport \"./BirthDate.sol\";\n\ncontract MarketPlace is Owned {\n\n    //structure of farmer - buyer/seller\n    struct Farmer {\n        uint aadhaar;                               // aadhar id of the farmer\n        address farmer_address;                     // blockchain identifier of the farmer\n        string name;\n        string residence_address;\n        string email;\n        string phone;\n    }\n\n    //structure of cattle\n    struct Cattle {\n        uint cattle_id;                             // unique id of the cattle\n        address cattle_address;                     // blockchain identifier of the cattle\n        address owner;\n        string name;\n        uint age;\n        string breed;\n        uint lastCalfBirth;\n        bool isCow;\n        uint milkInLiters;\n        string health;\n        string description;\n    }\n\n    //structure of dairy_company\n    struct Dairy_Company {\n        uint dairy_id;                             // unique id of the dairy_company\n        address dairy_company_address;             // blockchain identifier of the dairy_company\n        string name;\n        string residence_address;\n        string email;\n        string phone;\n        string description;\n    }\n\n    //structure of Veterinarian\n    struct Veterinarian {\n        uint veterinarians_id;                      // unique id of the Veterinarian\n        address veterinarians_address;              // blockchain identifier of the Veterinarian\n        string name;\n        string residence_address;\n        string email;\n        string phone;\n        string description;\n    }\n    \n    // Global Veriables\n    uint nFarmers;\n    uint nCowsPerFarmer;\n    uint nDaires;\n    uint nVeterinarian;\n    \n    uint cattleCounter = 0;\n    uint dairyCounter = 0;\n    uint veterinarianCounter = 0;\n    \n    // address to borrower map\n    mapping (address => Farmer) public cattle_to_owner_map;\n    mapping (address => uint) public seller_rating_map;\n    \n    mapping(uint => Cattle) public cattles_for_sell_map;\n    uint cattlesForSellCount;\n\n    //Events\n    event sellCattleEvent(\n    uint indexed _id,\n    address indexed _seller,\n    string _name,\n    uint256 _price);\n\n    event sellMilkEvent(\n    uint indexed _id,\n    address indexed _seller,\n    string _name,\n    uint256 _price);\n\n    event buyCattleEvent(\n    uint indexed _id,\n    address indexed _seller,\n    address indexed _buyer,\n    string _name,\n    uint256 _price);\n\n    Farmer[] Farmers;// = new Farmer[](nFarmers);\n    Cattle[] Cattles;// = new Cattle[](nCowsPerFarmer);\n    Dairy_Company[] Dairy_Companies;// = new Dairy_Company[](nDaires);\n    Veterinarian[] Veterinarians;// = new Veterinarian[](nVeterinarian);\n\n    constructor() public {\n    }\n\n    /*constructor(uint _n_farmers, uint _n_cowsperfarmer, uint _n_daires, uint _n_veterinarian) public {\n        nFarmers = _n_farmers;\n        nCowsPerFarmer = _n_cowsperfarmer;\n        nDaires = _n_daires;\n        nVeterinarian = _n_veterinarian;\n    }*/\n\n\n    function registerAccount (uint _accountType, string memory _name, string memory _emailId, string memory _resAddress, string memory _phone, string memory _password1, uint _identity) public {\n        require(_identity != 0, \"Invalid identity number!\");\n        \n        if (_accountType == 1)     // Farmer\n        {\n            for (uint i = 0; i < Farmers.length; i++)\n            {\n                //require(Farmers[i].farmer_address != _new_farmer, \"Farmer already added into the network!\");\n            }\n            \n            Farmers.push(Farmer({\n                aadhaar: _identity,\n                farmer_address: msg.sender,//farmer_address: _new_farmer,\n                name: _name,\n                residence_address: _resAddress,\n                email: _emailId,\n                phone: _phone\n            }));\n        }\n        else if (_accountType == 2)     // Veterinarian\n        {\n    \n        }\n        else if (_accountType == 3)     // Dairy Company\n        {\n            for (uint i = 0; i < Dairy_Companies.length; i++)\n            {\n                //require(Dairy_Companies[i].dairy_company_address != _new_dairy, \"Dairy already added into the network!\");\n            }\n\n            Dairy_Companies.push(Dairy_Company({\n                dairy_id: ++dairyCounter,                             // unique id of the dairy_company\n                dairy_company_address: msg.sender,//dairy_company_address: _new_dairy,              // blockchain identifier of the dairy_company\n                name: _name,\n                residence_address: _resAddress,\n                email: _emailId,\n                phone: _phone,\n                description: \"\"\n            }));\n        }\n    }\n\n\n    // ====================== Farmer (buyer or seller) Functions Start ======================\n    function RegisterFarmer(address _new_farmer, string memory _name, string memory _res_address, string memory _email, string memory _phone, uint _aadhaar, bool _asSeller/*?*/) public {\n        require(_aadhaar != 0, \"Invalid aadhaar number!\");\n        \n        for (uint i = 0; i < Farmers.length; i++)\n        {\n            require(Farmers[i].farmer_address != _new_farmer, \"Farmer already added into the network!\");\n        }\n        \n        Farmers.push(Farmer({\n            aadhaar: _aadhaar,\n            farmer_address: _new_farmer,\n            name: _name,\n            residence_address: _res_address,\n            email: _email,\n            phone: _phone\n        }));\n    }\n\n    function UnRegisterFarmer(address farmer) public {\n         //- self unregistration\n        for (uint i = 0; i < Farmers.length; i++)\n        {\n            if (Farmers[i].farmer_address == farmer)\n            {\n                delete Farmers[i];\n                break;\n            }\n        }\n    }\n\n    function SetBasePriceForCattle(address cattle, uint baseprice) public {\n        //- farmer should be the owner of the cattle\n    }\n    function StartAuctionForCattle(address cattle, uint acutionperiod) public {\n        // - farmer should be the owner of the cattle\n    }\n    function EndAuctionForCattle(address cattle) public {\n        // - farmer should be the owner of the cattle, - the ownership of the cattle has to be transferred\n    }\n    function SetBasePriceFoCowMilk(address cattle, uint baseprice) public {\n        // - baseprice - per liter, - farmer should be the owner of the cattle\n    }\n    function StartAuctionForCowMilk(address cattle, uint acutionperiod, uint milkInLiters) public {\n        // auctionperiod is in mins\n        // - total price = baseprice * milkInLiters, - farmer should be the owner of the cattle\n    }\n    function EndAuctionForCowMilk(address cattle) public {\n        // - farmer should be the owner of the cattle, the ownership of the cow milk has to be transferred\n    }\n\n    function RegisterCattle(address _new_cattle, string memory _name, address _owner, uint _age, string memory _breed, uint _lastCalfBirth, bool _isCow, uint _milkInLiters/*?*/, string memory _health/*?*/, string memory _description) public {\n        // - owner should be registered before hand into the system, - health last updated, - get health confirmation from the veterinarians\n        for (uint i = 0; i < Cattles.length; i++)\n        {\n            require(Cattles[i].cattle_address != _new_cattle, \"Cattle already added into the network!\");\n        }\n\n        Cattles.push(Cattle({\n            cattle_id: ++cattleCounter,                             // unique id of the cattle\n            cattle_address: _new_cattle,                            // blockchain identifier of the cattle\n            owner:msg.sender, \n            name: _name, \n            age: _age, \n            breed: _breed, \n            lastCalfBirth: _lastCalfBirth, \n            isCow: _isCow, \n            milkInLiters: _milkInLiters, \n            health: _health, \n            description: _description\n        }));\n\n        // Fillup the cattle ownership map\n        for (uint i = 0; i < Farmers.length; i++)\n        {\n            if (Farmers[i].farmer_address == msg.sender)\n            {\n                cattle_to_owner_map[_new_cattle] = Farmers[i];  // This Farmer is the owner of the cattle\n                break;\n            }\n        }\n    }\n\n    function RequestHealthConfirmation(uint vid, address cattle, string memory health) public {\n        // - get health confirmation from the veterinarians\n    }\n    function HealthConfirmed(address cattle) public {\n        // - event raised by Veterinarians\n    }\n    function UpdateCattleHealth(/*?*/) public {\n        // - health certificate or health as - good, not-good, better, best?, - get health confirmation from the veterinarians\n    }\n\n    function UnRegisterCattle(address cattle) public {\n        // - farmer should be the owner of the cattle\n        \n        for (uint i = 0; i < Cattles.length; i++)\n        {\n            if (Cattles[i].cattle_address == cattle)\n            {\n                require(Cattles[i].owner != msg.sender, \"Farmer should be the owner of the cattle!\");\n                delete Cattles[i];\n                break;\n            }\n        }\n    }\n\n    function PublishRequirement(address buyer, string memory breedofcow, uint ageofcow, bool milk, uint milkInLiters /*or numberofcattles if no milk*/) public {\n        // - buyer's milk or cattle/cow requirement\n\n        // ToDo: auto choose seller\n        ChooseSeller();\n    }\n    function ChooseSeller() private {\n        // - private function, choses the seller based on the given requirements from the buyer\n    }\n    function RateBuyer(address buyer, uint rating) public {\n    }\n\n    function RateSeller(address seller, uint rating) public {\n        // - Based on the past transactions and feedback from the buyer, the sellers will be given a trust score.\n        require(rating > 5, \"Rating should be within the range of 1 to 5!\");\n        \n        seller_rating_map[seller] = rating;\n    }\n\n    function RateDairy(address dairy, uint rating) public {\n    }\n    // ====================== Farmer (buyer or seller) Functions End ======================\n\n    // ====================== DairyCompany Functions Start ======================\n    function RegisterDairy(address _new_dairy, string memory _name, string memory _res_address, string memory _email, string memory _phone, string memory _description) public {\n        for (uint i = 0; i < Dairy_Companies.length; i++)\n        {\n            require(Dairy_Companies[i].dairy_company_address != _new_dairy, \"Dairy already added into the network!\");\n        }\n\n        Dairy_Companies.push(Dairy_Company({\n            dairy_id: ++dairyCounter,                             // unique id of the dairy_company\n            dairy_company_address: _new_dairy,              // blockchain identifier of the dairy_company\n            name: _name,\n            residence_address: _res_address,\n            email: _email,\n            phone: _phone,\n            description: _description\n        }));\n    }\n    function SetPriceForCattle(address cattle, uint price) public { \n        // - criteria - acution should be in progress for that particular cattle.\n    }\n\n    function UnRegisterDairy(address dairy) public {\n        for (uint i = 0; i < Dairy_Companies.length; i++)\n        {\n            if (Dairy_Companies[i].dairy_company_address == dairy)\n            {\n                delete Dairy_Companies[i];\n                break;\n            }\n        }\n    }\n    // ====================== DairyCompany Functions End ======================\n\n    // ====================== Veterinarians Functions Start ======================\n    function RegisterVeterinarian(address _new_veterinarian, string memory _name, string memory _res_address, string memory _email, string memory _phone, string memory _description) public { \n        // - Unique Id\n        for (uint i = 0; i < Veterinarians.length; i++)\n        {\n            require(Veterinarians[i].veterinarians_address != _new_veterinarian, \"Veterinarian already added into the network!\");\n        }\n\n        Veterinarians.push(Veterinarian({\n            veterinarians_id: ++veterinarianCounter,                       // unique id of the Veterinarian\n            veterinarians_address: _new_veterinarian,              // blockchain identifier of the Veterinarian\n            name: _name,\n            residence_address: _res_address,\n            email: _email,\n            phone: _phone,\n            description: _description\n        }));\n    }\n    \n    function ConfirmHealth(address cattle, string memory health) public { \n        // - raises confirm event\n    }\n    function GetHealthConfirmationRequests() public {\n    }\n    \n    function UnRegisterVeterinarian(address veterinarian) public {\n        for (uint i = 0; i < Veterinarians.length; i++)\n        {\n            if (Veterinarians[i].veterinarians_address == veterinarian)\n            {\n                delete Veterinarians[i];\n                break;\n            }\n        }\n    }\n    // ====================== Veterinarians Functions End ======================\n\n    //kill the smart contract\n    function kill() private onlyOwner {\n        //selfdestruct(owner);\n    }\n}\n",
  "sourcePath": "D:/Work/TechGig/2019/Blockchain/FinalRound/CattleMarketPlace/contracts/Marketplace.sol",
  "compiler": {
    "name": "solc",
    "version": "0.5.8+commit.23d335f2.Emscripten.clang"
  },
  "schemaVersion": "3.0.11",
  "updatedAt": "2019-06-21T20:41:24.242Z",
  "devdoc": {
    "methods": {}
  },
  "userdoc": {
    "methods": {}
  }
}