{
  "contractName": "MarketPlace",
  "abi": [
    {
      "constant": true,
      "inputs": [
        {
          "name": "",
          "type": "address"
        }
      ],
      "name": "cattle_to_owner_map",
      "outputs": [
        {
          "name": "aadhaar",
          "type": "uint256"
        },
        {
          "name": "farmer_address",
          "type": "address"
        },
        {
          "name": "name",
          "type": "string"
        },
        {
          "name": "residence_address",
          "type": "string"
        },
        {
          "name": "email",
          "type": "string"
        },
        {
          "name": "phone",
          "type": "string"
        }
      ],
      "payable": false,
      "stateMutability": "view",
      "type": "function"
    },
    {
      "constant": true,
      "inputs": [
        {
          "name": "",
          "type": "uint256"
        }
      ],
      "name": "cattles_for_sell_map",
      "outputs": [
        {
          "name": "cattle_id",
          "type": "uint256"
        },
        {
          "name": "cattle_address",
          "type": "address"
        },
        {
          "name": "owner",
          "type": "address"
        },
        {
          "name": "name",
          "type": "string"
        },
        {
          "name": "age",
          "type": "uint256"
        },
        {
          "name": "breed",
          "type": "string"
        },
        {
          "name": "lastCalfBirth",
          "type": "uint256"
        },
        {
          "name": "isCow",
          "type": "bool"
        },
        {
          "name": "milkInLiters",
          "type": "uint256"
        },
        {
          "name": "health",
          "type": "string"
        },
        {
          "name": "description",
          "type": "string"
        }
      ],
      "payable": false,
      "stateMutability": "view",
      "type": "function"
    },
    {
      "constant": true,
      "inputs": [
        {
          "name": "",
          "type": "address"
        }
      ],
      "name": "seller_rating_map",
      "outputs": [
        {
          "name": "",
          "type": "uint256"
        }
      ],
      "payable": false,
      "stateMutability": "view",
      "type": "function"
    },
    {
      "inputs": [],
      "payable": false,
      "stateMutability": "nonpayable",
      "type": "constructor"
    },
    {
      "anonymous": false,
      "inputs": [
        {
          "indexed": true,
          "name": "_id",
          "type": "uint256"
        },
        {
          "indexed": true,
          "name": "_seller",
          "type": "address"
        },
        {
          "indexed": false,
          "name": "_name",
          "type": "string"
        },
        {
          "indexed": false,
          "name": "_price",
          "type": "uint256"
        }
      ],
      "name": "sellCattleEvent",
      "type": "event"
    },
    {
      "anonymous": false,
      "inputs": [
        {
          "indexed": true,
          "name": "_id",
          "type": "uint256"
        },
        {
          "indexed": true,
          "name": "_seller",
          "type": "address"
        },
        {
          "indexed": false,
          "name": "_name",
          "type": "string"
        },
        {
          "indexed": false,
          "name": "_price",
          "type": "uint256"
        }
      ],
      "name": "sellMilkEvent",
      "type": "event"
    },
    {
      "anonymous": false,
      "inputs": [
        {
          "indexed": true,
          "name": "_id",
          "type": "uint256"
        },
        {
          "indexed": true,
          "name": "_seller",
          "type": "address"
        },
        {
          "indexed": true,
          "name": "_buyer",
          "type": "address"
        },
        {
          "indexed": false,
          "name": "_name",
          "type": "string"
        },
        {
          "indexed": false,
          "name": "_price",
          "type": "uint256"
        }
      ],
      "name": "buyCattleEvent",
      "type": "event"
    },
    {
      "constant": false,
      "inputs": [
        {
          "name": "_accountType",
          "type": "uint256"
        },
        {
          "name": "_name",
          "type": "string"
        },
        {
          "name": "_emailId",
          "type": "string"
        },
        {
          "name": "_resAddress",
          "type": "string"
        },
        {
          "name": "_phone",
          "type": "string"
        },
        {
          "name": "_password1",
          "type": "string"
        },
        {
          "name": "_identity",
          "type": "uint256"
        }
      ],
      "name": "registerAccount",
      "outputs": [],
      "payable": false,
      "stateMutability": "nonpayable",
      "type": "function"
    },
    {
      "constant": false,
      "inputs": [
        {
          "name": "_new_farmer",
          "type": "address"
        },
        {
          "name": "_name",
          "type": "string"
        },
        {
          "name": "_res_address",
          "type": "string"
        },
        {
          "name": "_email",
          "type": "string"
        },
        {
          "name": "_phone",
          "type": "string"
        },
        {
          "name": "_aadhaar",
          "type": "uint256"
        },
        {
          "name": "_asSeller",
          "type": "bool"
        }
      ],
      "name": "RegisterFarmer",
      "outputs": [],
      "payable": false,
      "stateMutability": "nonpayable",
      "type": "function"
    },
    {
      "constant": false,
      "inputs": [
        {
          "name": "farmer",
          "type": "address"
        }
      ],
      "name": "UnRegisterFarmer",
      "outputs": [],
      "payable": false,
      "stateMutability": "nonpayable",
      "type": "function"
    },
    {
      "constant": false,
      "inputs": [
        {
          "name": "cattle",
          "type": "address"
        },
        {
          "name": "baseprice",
          "type": "uint256"
        }
      ],
      "name": "SetBasePriceForCattle",
      "outputs": [],
      "payable": false,
      "stateMutability": "nonpayable",
      "type": "function"
    },
    {
      "constant": false,
      "inputs": [
        {
          "name": "cattle",
          "type": "address"
        },
        {
          "name": "acutionperiod",
          "type": "uint256"
        }
      ],
      "name": "StartAuctionForCattle",
      "outputs": [],
      "payable": false,
      "stateMutability": "nonpayable",
      "type": "function"
    },
    {
      "constant": false,
      "inputs": [
        {
          "name": "cattle",
          "type": "address"
        }
      ],
      "name": "EndAuctionForCattle",
      "outputs": [],
      "payable": false,
      "stateMutability": "nonpayable",
      "type": "function"
    },
    {
      "constant": false,
      "inputs": [
        {
          "name": "cattle",
          "type": "address"
        },
        {
          "name": "baseprice",
          "type": "uint256"
        }
      ],
      "name": "SetBasePriceFoCowMilk",
      "outputs": [],
      "payable": false,
      "stateMutability": "nonpayable",
      "type": "function"
    },
    {
      "constant": false,
      "inputs": [
        {
          "name": "cattle",
          "type": "address"
        },
        {
          "name": "acutionperiod",
          "type": "uint256"
        },
        {
          "name": "milkInLiters",
          "type": "uint256"
        }
      ],
      "name": "StartAuctionForCowMilk",
      "outputs": [],
      "payable": false,
      "stateMutability": "nonpayable",
      "type": "function"
    },
    {
      "constant": false,
      "inputs": [
        {
          "name": "cattle",
          "type": "address"
        }
      ],
      "name": "EndAuctionForCowMilk",
      "outputs": [],
      "payable": false,
      "stateMutability": "nonpayable",
      "type": "function"
    },
    {
      "constant": false,
      "inputs": [
        {
          "name": "_new_cattle",
          "type": "address"
        },
        {
          "name": "_name",
          "type": "string"
        },
        {
          "name": "_age",
          "type": "uint256"
        },
        {
          "name": "_breed",
          "type": "string"
        },
        {
          "name": "_lastCalfBirth",
          "type": "uint256"
        },
        {
          "name": "_isCow",
          "type": "bool"
        },
        {
          "name": "_milkInLiters",
          "type": "uint256"
        },
        {
          "name": "_health",
          "type": "string"
        },
        {
          "name": "_description",
          "type": "string"
        }
      ],
      "name": "RegisterCattle",
      "outputs": [],
      "payable": false,
      "stateMutability": "nonpayable",
      "type": "function"
    },
    {
      "constant": false,
      "inputs": [
        {
          "name": "vid",
          "type": "uint256"
        },
        {
          "name": "cattle",
          "type": "address"
        },
        {
          "name": "health",
          "type": "string"
        }
      ],
      "name": "RequestHealthConfirmation",
      "outputs": [],
      "payable": false,
      "stateMutability": "nonpayable",
      "type": "function"
    },
    {
      "constant": false,
      "inputs": [
        {
          "name": "cattle",
          "type": "address"
        }
      ],
      "name": "HealthConfirmed",
      "outputs": [],
      "payable": false,
      "stateMutability": "nonpayable",
      "type": "function"
    },
    {
      "constant": false,
      "inputs": [],
      "name": "UpdateCattleHealth",
      "outputs": [],
      "payable": false,
      "stateMutability": "nonpayable",
      "type": "function"
    },
    {
      "constant": false,
      "inputs": [
        {
          "name": "cattle",
          "type": "address"
        }
      ],
      "name": "UnRegisterCattle",
      "outputs": [],
      "payable": false,
      "stateMutability": "nonpayable",
      "type": "function"
    },
    {
      "constant": false,
      "inputs": [
        {
          "name": "buyer",
          "type": "address"
        },
        {
          "name": "breedofcow",
          "type": "string"
        },
        {
          "name": "ageofcow",
          "type": "uint256"
        },
        {
          "name": "milk",
          "type": "bool"
        },
        {
          "name": "milkInLiters",
          "type": "uint256"
        }
      ],
      "name": "PublishRequirement",
      "outputs": [],
      "payable": false,
      "stateMutability": "nonpayable",
      "type": "function"
    },
    {
      "constant": false,
      "inputs": [
        {
          "name": "buyer",
          "type": "address"
        },
        {
          "name": "rating",
          "type": "uint256"
        }
      ],
      "name": "RateBuyer",
      "outputs": [],
      "payable": false,
      "stateMutability": "nonpayable",
      "type": "function"
    },
    {
      "constant": false,
      "inputs": [
        {
          "name": "seller",
          "type": "address"
        },
        {
          "name": "rating",
          "type": "uint256"
        }
      ],
      "name": "RateSeller",
      "outputs": [],
      "payable": false,
      "stateMutability": "nonpayable",
      "type": "function"
    },
    {
      "constant": false,
      "inputs": [
        {
          "name": "dairy",
          "type": "address"
        },
        {
          "name": "rating",
          "type": "uint256"
        }
      ],
      "name": "RateDairy",
      "outputs": [],
      "payable": false,
      "stateMutability": "nonpayable",
      "type": "function"
    },
    {
      "constant": false,
      "inputs": [
        {
          "name": "_new_dairy",
          "type": "address"
        },
        {
          "name": "_name",
          "type": "string"
        },
        {
          "name": "_res_address",
          "type": "string"
        },
        {
          "name": "_email",
          "type": "string"
        },
        {
          "name": "_phone",
          "type": "string"
        },
        {
          "name": "_description",
          "type": "string"
        }
      ],
      "name": "RegisterDairy",
      "outputs": [],
      "payable": false,
      "stateMutability": "nonpayable",
      "type": "function"
    },
    {
      "constant": false,
      "inputs": [
        {
          "name": "cattle",
          "type": "address"
        },
        {
          "name": "price",
          "type": "uint256"
        }
      ],
      "name": "SetPriceForCattle",
      "outputs": [],
      "payable": false,
      "stateMutability": "nonpayable",
      "type": "function"
    },
    {
      "constant": false,
      "inputs": [
        {
          "name": "dairy",
          "type": "address"
        }
      ],
      "name": "UnRegisterDairy",
      "outputs": [],
      "payable": false,
      "stateMutability": "nonpayable",
      "type": "function"
    },
    {
      "constant": false,
      "inputs": [
        {
          "name": "_new_veterinarian",
          "type": "address"
        },
        {
          "name": "_name",
          "type": "string"
        },
        {
          "name": "_res_address",
          "type": "string"
        },
        {
          "name": "_email",
          "type": "string"
        },
        {
          "name": "_phone",
          "type": "string"
        },
        {
          "name": "_description",
          "type": "string"
        }
      ],
      "name": "RegisterVeterinarian",
      "outputs": [],
      "payable": false,
      "stateMutability": "nonpayable",
      "type": "function"
    },
    {
      "constant": false,
      "inputs": [
        {
          "name": "cattle",
          "type": "address"
        },
        {
          "name": "health",
          "type": "string"
        }
      ],
      "name": "ConfirmHealth",
      "outputs": [],
      "payable": false,
      "stateMutability": "nonpayable",
      "type": "function"
    },
    {
      "constant": false,
      "inputs": [],
      "name": "GetHealthConfirmationRequests",
      "outputs": [],
      "payable": false,
      "stateMutability": "nonpayable",
      "type": "function"
    },
    {
      "constant": false,
      "inputs": [
        {
          "name": "veterinarian",
          "type": "address"
        }
      ],
      "name": "UnRegisterVeterinarian",
      "outputs": [],
      "payable": false,
      "stateMutability": "nonpayable",
      "type": "function"
    }
  ],
  "bytecode": "0x608060405260006005556000600655600060075560405180604001604052807302e292b88faf7ca8118b66956faf418724bc3b3073ffffffffffffffffffffffffffffffffffffffff1673ffffffffffffffffffffffffffffffffffffffff1681526020017386f6d73036673b379b2b97e6b02f6b100815c7fa73ffffffffffffffffffffffffffffffffffffffff1673ffffffffffffffffffffffffffffffffffffffff16815250600c906002620000ba92919062000379565b506040518060c0016040528073fc8cda1b389223fa8b827687cd4124c6f2936a7d73ffffffffffffffffffffffffffffffffffffffff1673ffffffffffffffffffffffffffffffffffffffff16815260200173f03bf8432548f49b2782de4a4a37d1bcb711555773ffffffffffffffffffffffffffffffffffffffff1673ffffffffffffffffffffffffffffffffffffffff168152602001732fcb336f47dfc35bb68cf595f1c352fab47e701e73ffffffffffffffffffffffffffffffffffffffff1673ffffffffffffffffffffffffffffffffffffffff1681526020017358536970581b2d7d0d789fd4b7297e7d18ade90e73ffffffffffffffffffffffffffffffffffffffff1673ffffffffffffffffffffffffffffffffffffffff1681526020017353ea6c69bd5d0906c226e9cba5b7d4177656fa0673ffffffffffffffffffffffffffffffffffffffff1673ffffffffffffffffffffffffffffffffffffffff16815260200173bd588cac001ef83e5ddd3021647d5041b19202f573ffffffffffffffffffffffffffffffffffffffff1673ffffffffffffffffffffffffffffffffffffffff16815250600e9060066200027a929190620003fb565b50730c07945ac6f20b409248cdbbffac32265e71a444601460006101000a81548173ffffffffffffffffffffffffffffffffffffffff021916908373ffffffffffffffffffffffffffffffffffffffff160217905550732cd001b47abd5bb9bbfd8d01f30f0b76917fa496601560006101000a81548173ffffffffffffffffffffffffffffffffffffffff021916908373ffffffffffffffffffffffffffffffffffffffff1602179055503480156200033257600080fd5b50336000806101000a81548173ffffffffffffffffffffffffffffffffffffffff021916908373ffffffffffffffffffffffffffffffffffffffff160217905550620004c3565b8260028101928215620003e8579160200282015b82811115620003e75782518260006101000a81548173ffffffffffffffffffffffffffffffffffffffff021916908373ffffffffffffffffffffffffffffffffffffffff160217905550916020019190600101906200038d565b5b509050620003f791906200047d565b5090565b82600681019282156200046a579160200282015b82811115620004695782518260006101000a81548173ffffffffffffffffffffffffffffffffffffffff021916908373ffffffffffffffffffffffffffffffffffffffff160217905550916020019190600101906200040f565b5b5090506200047991906200047d565b5090565b620004c091905b80821115620004bc57600081816101000a81549073ffffffffffffffffffffffffffffffffffffffff02191690555060010162000484565b5090565b90565b613dcf80620004d36000396000f3fe608060405234801561001057600080fd5b50600436106101c45760003560e01c8063b380ad49116100f9578063ef24f7c911610097578063f58bdcda11610071578063f58bdcda14611871578063f8b55cbc146118c9578063fa1ffd481461190d578063fb9efd5e146119e8576101c4565b8063ef24f7c9146117d5578063f05bbb69146117df578063f46a8a8c1461182d576101c4565b8063cb53a608116100d3578063cb53a608146116a7578063da54cf4c146116eb578063dbe97c8014611743578063ea6e584714611791576101c4565b8063b380ad4914611393578063bca399681461160b578063be87cf9114611659576101c4565b8063846f4a55116101665780639a687932116101405780639a68793214610d9d578063a3d93a7a14610da7578063a4f4ff9914610ea2578063a8a14857146110dd576101c4565b8063846f4a5514610a4057806386b7777314610d0b578063976c6ba814610d4f576101c4565b80633febc690116101a25780633febc6901461059257806340e8698f1461067757806342175681146106bb5780636e2c358d14610709576101c4565b806312a5bc5b146101c95780631d8585491461020d57806327283b2e1461025b575b600080fd5b61020b600480360360208110156101df57600080fd5b81019080803573ffffffffffffffffffffffffffffffffffffffff169060200190929190505050611d13565b005b6102596004803603604081101561022357600080fd5b81019080803573ffffffffffffffffffffffffffffffffffffffff16906020019092919080359060200190929190505050611e4b565b005b610590600480360360c081101561027157600080fd5b81019080803573ffffffffffffffffffffffffffffffffffffffff169060200190929190803590602001906401000000008111156102ae57600080fd5b8201836020820111156102c057600080fd5b803590602001918460018302840111640100000000831117156102e257600080fd5b91908080601f016020809104026020016040519081016040528093929190818152602001838380828437600081840152601f19601f8201169050808301925050505050505091929192908035906020019064010000000081111561034557600080fd5b82018360208201111561035757600080fd5b8035906020019184600183028401116401000000008311171561037957600080fd5b91908080601f016020809104026020016040519081016040528093929190818152602001838380828437600081840152601f19601f820116905080830192505050505050509192919290803590602001906401000000008111156103dc57600080fd5b8201836020820111156103ee57600080fd5b8035906020019184600183028401116401000000008311171561041057600080fd5b91908080601f016020809104026020016040519081016040528093929190818152602001838380828437600081840152601f19601f8201169050808301925050505050505091929192908035906020019064010000000081111561047357600080fd5b82018360208201111561048557600080fd5b803590602001918460018302840111640100000000831117156104a757600080fd5b91908080601f016020809104026020016040519081016040528093929190818152602001838380828437600081840152601f19601f8201169050808301925050505050505091929192908035906020019064010000000081111561050a57600080fd5b82018360208201111561051c57600080fd5b8035906020019184600183028401116401000000008311171561053e57600080fd5b91908080601f016020809104026020016040519081016040528093929190818152602001838380828437600081840152601f19601f820116905080830192505050505050509192919290505050611e4f565b005b610675600480360360608110156105a857600080fd5b8101908080359060200190929190803573ffffffffffffffffffffffffffffffffffffffff169060200190929190803590602001906401000000008111156105ef57600080fd5b82018360208201111561060157600080fd5b8035906020019184600183028401116401000000008311171561062357600080fd5b91908080601f016020809104026020016040519081016040528093929190818152602001838380828437600081840152601f19601f8201169050808301925050505050505091929192905050506120a4565b005b6106b96004803603602081101561068d57600080fd5b81019080803573ffffffffffffffffffffffffffffffffffffffff1690602001909291905050506120a9565b005b610707600480360360408110156106d157600080fd5b81019080803573ffffffffffffffffffffffffffffffffffffffff169060200190929190803590602001909291905050506121d1565b005b610a3e600480360360c081101561071f57600080fd5b81019080803573ffffffffffffffffffffffffffffffffffffffff1690602001909291908035906020019064010000000081111561075c57600080fd5b82018360208201111561076e57600080fd5b8035906020019184600183028401116401000000008311171561079057600080fd5b91908080601f016020809104026020016040519081016040528093929190818152602001838380828437600081840152601f19601f820116905080830192505050505050509192919290803590602001906401000000008111156107f357600080fd5b82018360208201111561080557600080fd5b8035906020019184600183028401116401000000008311171561082757600080fd5b91908080601f016020809104026020016040519081016040528093929190818152602001838380828437600081840152601f19601f8201169050808301925050505050505091929192908035906020019064010000000081111561088a57600080fd5b82018360208201111561089c57600080fd5b803590602001918460018302840111640100000000831117156108be57600080fd5b91908080601f016020809104026020016040519081016040528093929190818152602001838380828437600081840152601f19601f8201169050808301925050505050505091929192908035906020019064010000000081111561092157600080fd5b82018360208201111561093357600080fd5b8035906020019184600183028401116401000000008311171561095557600080fd5b91908080601f016020809104026020016040519081016040528093929190818152602001838380828437600081840152601f19601f820116905080830192505050505050509192919290803590602001906401000000008111156109b857600080fd5b8201836020820111156109ca57600080fd5b803590602001918460018302840111640100000000831117156109ec57600080fd5b91908080601f016020809104026020016040519081016040528093929190818152602001838380828437600081840152601f19601f8201169050808301925050505050505091929192905050506121d5565b005b610d096004803603610120811015610a5757600080fd5b81019080803573ffffffffffffffffffffffffffffffffffffffff16906020019092919080359060200190640100000000811115610a9457600080fd5b820183602082011115610aa657600080fd5b80359060200191846001830284011164010000000083111715610ac857600080fd5b91908080601f016020809104026020016040519081016040528093929190818152602001838380828437600081840152601f19601f8201169050808301925050505050505091929192908035906020019092919080359060200190640100000000811115610b3557600080fd5b820183602082011115610b4757600080fd5b80359060200191846001830284011164010000000083111715610b6957600080fd5b91908080601f016020809104026020016040519081016040528093929190818152602001838380828437600081840152601f19601f820116905080830192505050505050509192919290803590602001909291908035151590602001909291908035906020019092919080359060200190640100000000811115610bec57600080fd5b820183602082011115610bfe57600080fd5b80359060200191846001830284011164010000000083111715610c2057600080fd5b91908080601f016020809104026020016040519081016040528093929190818152602001838380828437600081840152601f19601f82011690508083019250505050505050919291929080359060200190640100000000811115610c8357600080fd5b820183602082011115610c9557600080fd5b80359060200191846001830284011164010000000083111715610cb757600080fd5b91908080601f016020809104026020016040519081016040528093929190818152602001838380828437600081840152601f19601f82011690508083019250505050505050919291929050505061242a565b005b610d4d60048036036020811015610d2157600080fd5b81019080803573ffffffffffffffffffffffffffffffffffffffff169060200190929190505050612924565b005b610d9b60048036036040811015610d6557600080fd5b81019080803573ffffffffffffffffffffffffffffffffffffffff16906020019092919080359060200190929190505050612927565b005b610da561292b565b005b610ea0600480360360a0811015610dbd57600080fd5b81019080803573ffffffffffffffffffffffffffffffffffffffff16906020019092919080359060200190640100000000811115610dfa57600080fd5b820183602082011115610e0c57600080fd5b80359060200191846001830284011164010000000083111715610e2e57600080fd5b91908080601f016020809104026020016040519081016040528093929190818152602001838380828437600081840152601f19601f820116905080830192505050505050509192919290803590602001909291908035151590602001909291908035906020019092919050505061292d565b005b610ee460048036036020811015610eb857600080fd5b81019080803573ffffffffffffffffffffffffffffffffffffffff16906020019092919050505061293c565b604051808781526020018673ffffffffffffffffffffffffffffffffffffffff1673ffffffffffffffffffffffffffffffffffffffff16815260200180602001806020018060200180602001858103855289818151815260200191508051906020019080838360005b83811015610f68578082015181840152602081019050610f4d565b50505050905090810190601f168015610f955780820380516001836020036101000a031916815260200191505b50858103845288818151815260200191508051906020019080838360005b83811015610fce578082015181840152602081019050610fb3565b50505050905090810190601f168015610ffb5780820380516001836020036101000a031916815260200191505b50858103835287818151815260200191508051906020019080838360005b83811015611034578082015181840152602081019050611019565b50505050905090810190601f1680156110615780820380516001836020036101000a031916815260200191505b50858103825286818151815260200191508051906020019080838360005b8381101561109a57808201518184015260208101905061107f565b50505050905090810190601f1680156110c75780820380516001836020036101000a031916815260200191505b509a505050505050505050505060405180910390f35b611391600480360360e08110156110f357600080fd5b81019080803573ffffffffffffffffffffffffffffffffffffffff1690602001909291908035906020019064010000000081111561113057600080fd5b82018360208201111561114257600080fd5b8035906020019184600183028401116401000000008311171561116457600080fd5b91908080601f016020809104026020016040519081016040528093929190818152602001838380828437600081840152601f19601f820116905080830192505050505050509192919290803590602001906401000000008111156111c757600080fd5b8201836020820111156111d957600080fd5b803590602001918460018302840111640100000000831117156111fb57600080fd5b91908080601f016020809104026020016040519081016040528093929190818152602001838380828437600081840152601f19601f8201169050808301925050505050505091929192908035906020019064010000000081111561125e57600080fd5b82018360208201111561127057600080fd5b8035906020019184600183028401116401000000008311171561129257600080fd5b91908080601f016020809104026020016040519081016040528093929190818152602001838380828437600081840152601f19601f820116905080830192505050505050509192919290803590602001906401000000008111156112f557600080fd5b82018360208201111561130757600080fd5b8035906020019184600183028401116401000000008311171561132957600080fd5b91908080601f016020809104026020016040519081016040528093929190818152602001838380828437600081840152601f19601f82011690508083019250505050505050919291929080359060200190929190803515159060200190929190505050612bf8565b005b6113bf600480360360208110156113a957600080fd5b8101908080359060200190929190505050612e94565b604051808c81526020018b73ffffffffffffffffffffffffffffffffffffffff1673ffffffffffffffffffffffffffffffffffffffff1681526020018a73ffffffffffffffffffffffffffffffffffffffff1673ffffffffffffffffffffffffffffffffffffffff168152602001806020018981526020018060200188815260200187151515158152602001868152602001806020018060200185810385528d818151815260200191508051906020019080838360005b83811015611491578082015181840152602081019050611476565b50505050905090810190601f1680156114be5780820380516001836020036101000a031916815260200191505b5085810384528b818151815260200191508051906020019080838360005b838110156114f75780820151818401526020810190506114dc565b50505050905090810190601f1680156115245780820380516001836020036101000a031916815260200191505b50858103835287818151815260200191508051906020019080838360005b8381101561155d578082015181840152602081019050611542565b50505050905090810190601f16801561158a5780820380516001836020036101000a031916815260200191505b50858103825286818151815260200191508051906020019080838360005b838110156115c35780820151818401526020810190506115a8565b50505050905090810190601f1680156115f05780820380516001836020036101000a031916815260200191505b509f5050505050505050505050505050505060405180910390f35b6116576004803603604081101561162157600080fd5b81019080803573ffffffffffffffffffffffffffffffffffffffff1690602001909291908035906020019092919050505061319b565b005b6116a56004803603604081101561166f57600080fd5b81019080803573ffffffffffffffffffffffffffffffffffffffff1690602001909291908035906020019092919050505061319f565b005b6116e9600480360360208110156116bd57600080fd5b81019080803573ffffffffffffffffffffffffffffffffffffffff1690602001909291905050506131a3565b005b6117416004803603606081101561170157600080fd5b81019080803573ffffffffffffffffffffffffffffffffffffffff16906020019092919080359060200190929190803590602001909291905050506131a6565b005b61178f6004803603604081101561175957600080fd5b81019080803573ffffffffffffffffffffffffffffffffffffffff169060200190929190803590602001909291905050506131ab565b005b6117d3600480360360208110156117a757600080fd5b81019080803573ffffffffffffffffffffffffffffffffffffffff16906020019092919050505061324c565b005b6117dd613384565b005b61182b600480360360408110156117f557600080fd5b81019080803573ffffffffffffffffffffffffffffffffffffffff16906020019092919080359060200190929190505050613386565b005b61186f6004803603602081101561184357600080fd5b81019080803573ffffffffffffffffffffffffffffffffffffffff16906020019092919050505061338a565b005b6118b36004803603602081101561188757600080fd5b81019080803573ffffffffffffffffffffffffffffffffffffffff1690602001909291905050506135c8565b6040518082815260200191505060405180910390f35b61190b600480360360208110156118df57600080fd5b81019080803573ffffffffffffffffffffffffffffffffffffffff1690602001909291905050506135e0565b005b6119e66004803603604081101561192357600080fd5b81019080803573ffffffffffffffffffffffffffffffffffffffff1690602001909291908035906020019064010000000081111561196057600080fd5b82018360208201111561197257600080fd5b8035906020019184600183028401116401000000008311171561199457600080fd5b91908080601f016020809104026020016040519081016040528093929190818152602001838380828437600081840152601f19601f8201169050808301925050505050505091929192905050506135e3565b005b611d11600480360360e08110156119fe57600080fd5b810190808035906020019092919080359060200190640100000000811115611a2557600080fd5b820183602082011115611a3757600080fd5b80359060200191846001830284011164010000000083111715611a5957600080fd5b91908080601f016020809104026020016040519081016040528093929190818152602001838380828437600081840152601f19601f82011690508083019250505050505050919291929080359060200190640100000000811115611abc57600080fd5b820183602082011115611ace57600080fd5b80359060200191846001830284011164010000000083111715611af057600080fd5b91908080601f016020809104026020016040519081016040528093929190818152602001838380828437600081840152601f19601f82011690508083019250505050505050919291929080359060200190640100000000811115611b5357600080fd5b820183602082011115611b6557600080fd5b80359060200191846001830284011164010000000083111715611b8757600080fd5b91908080601f016020809104026020016040519081016040528093929190818152602001838380828437600081840152601f19601f82011690508083019250505050505050919291929080359060200190640100000000811115611bea57600080fd5b820183602082011115611bfc57600080fd5b80359060200191846001830284011164010000000083111715611c1e57600080fd5b91908080601f016020809104026020016040519081016040528093929190818152602001838380828437600081840152601f19601f82011690508083019250505050505050919291929080359060200190640100000000811115611c8157600080fd5b820183602082011115611c9357600080fd5b80359060200191846001830284011164010000000083111715611cb557600080fd5b91908080601f016020809104026020016040519081016040528093929190818152602001838380828437600081840152601f19601f820116905080830192505050505050509192919290803590602001909291905050506135e7565b005b60008090505b601980549050811015611e47578173ffffffffffffffffffffffffffffffffffffffff1660198281548110611d4a57fe5b906000526020600020906007020160010160009054906101000a900473ffffffffffffffffffffffffffffffffffffffff1673ffffffffffffffffffffffffffffffffffffffff161415611e3a5760198181548110611da557fe5b90600052602060002090600702016000808201600090556001820160006101000a81549073ffffffffffffffffffffffffffffffffffffffff0219169055600282016000611df39190613b3d565b600382016000611e039190613b3d565b600482016000611e139190613b3d565b600582016000611e239190613b3d565b600682016000611e339190613b3d565b5050611e47565b8080600101915050611d19565b5050565b5050565b60008090505b601980549050811015611f32578673ffffffffffffffffffffffffffffffffffffffff1660198281548110611e8657fe5b906000526020600020906007020160010160009054906101000a900473ffffffffffffffffffffffffffffffffffffffff1673ffffffffffffffffffffffffffffffffffffffff161415611f25576040517f08c379a000000000000000000000000000000000000000000000000000000000815260040180806020018281038252602c815260200180613d26602c913960400191505060405180910390fd5b8080600101915050611e55565b5060196040518060e0016040528060076000815460010191905081905581526020018873ffffffffffffffffffffffffffffffffffffffff16815260200187815260200186815260200185815260200184815260200183815250908060018154018082558091505090600182039060005260206000209060070201600090919290919091506000820151816000015560208201518160010160006101000a81548173ffffffffffffffffffffffffffffffffffffffff021916908373ffffffffffffffffffffffffffffffffffffffff1602179055506040820151816002019080519060200190612024929190613b85565b506060820151816003019080519060200190612041929190613b85565b50608082015181600401908051906020019061205e929190613b85565b5060a082015181600501908051906020019061207b929190613b85565b5060c0820151816006019080519060200190612098929190613b85565b50505050505050505050565b505050565b60008090505b6016805490508110156121cd578173ffffffffffffffffffffffffffffffffffffffff16601682815481106120e057fe5b906000526020600020906006020160010160009054906101000a900473ffffffffffffffffffffffffffffffffffffffff1673ffffffffffffffffffffffffffffffffffffffff1614156121c0576016818154811061213b57fe5b90600052602060002090600602016000808201600090556001820160006101000a81549073ffffffffffffffffffffffffffffffffffffffff02191690556002820160006121899190613b3d565b6003820160006121999190613b3d565b6004820160006121a99190613b3d565b6005820160006121b99190613b3d565b50506121cd565b80806001019150506120af565b5050565b5050565b60008090505b6018805490508110156122b8578673ffffffffffffffffffffffffffffffffffffffff166018828154811061220c57fe5b906000526020600020906007020160010160009054906101000a900473ffffffffffffffffffffffffffffffffffffffff1673ffffffffffffffffffffffffffffffffffffffff1614156122ab576040517f08c379a0000000000000000000000000000000000000000000000000000000008152600401808060200182810382526025815260200180613cd86025913960400191505060405180910390fd5b80806001019150506121db565b5060186040518060e0016040528060066000815460010191905081905581526020018873ffffffffffffffffffffffffffffffffffffffff16815260200187815260200186815260200185815260200184815260200183815250908060018154018082558091505090600182039060005260206000209060070201600090919290919091506000820151816000015560208201518160010160006101000a81548173ffffffffffffffffffffffffffffffffffffffff021916908373ffffffffffffffffffffffffffffffffffffffff16021790555060408201518160020190805190602001906123aa929190613b85565b5060608201518160030190805190602001906123c7929190613b85565b5060808201518160040190805190602001906123e4929190613b85565b5060a0820151816005019080519060200190612401929190613b85565b5060c082015181600601908051906020019061241e929190613b85565b50505050505050505050565b60008090505b60178054905081101561250d578973ffffffffffffffffffffffffffffffffffffffff166017828154811061246157fe5b90600052602060002090600b020160010160009054906101000a900473ffffffffffffffffffffffffffffffffffffffff1673ffffffffffffffffffffffffffffffffffffffff161415612500576040517f08c379a0000000000000000000000000000000000000000000000000000000008152600401808060200182810382526026815260200180613cb26026913960400191505060405180910390fd5b8080600101915050612430565b50601760405180610160016040528060056000815460010191905081905581526020018b73ffffffffffffffffffffffffffffffffffffffff1681526020013373ffffffffffffffffffffffffffffffffffffffff1681526020018a81526020018981526020018881526020018781526020018615158152602001858152602001848152602001838152509080600181540180825580915050906001820390600052602060002090600b0201600090919290919091506000820151816000015560208201518160010160006101000a81548173ffffffffffffffffffffffffffffffffffffffff021916908373ffffffffffffffffffffffffffffffffffffffff16021790555060408201518160020160006101000a81548173ffffffffffffffffffffffffffffffffffffffff021916908373ffffffffffffffffffffffffffffffffffffffff1602179055506060820151816003019080519060200190612677929190613b85565b506080820151816004015560a082015181600501908051906020019061269e929190613b85565b5060c0820151816006015560e08201518160070160006101000a81548160ff02191690831515021790555061010082015181600801556101208201518160090190805190602001906126f1929190613b85565b5061014082015181600a01908051906020019061270f929190613b85565b5050505060008090505b601680549050811015612918573373ffffffffffffffffffffffffffffffffffffffff166016828154811061274a57fe5b906000526020600020906006020160010160009054906101000a900473ffffffffffffffffffffffffffffffffffffffff1673ffffffffffffffffffffffffffffffffffffffff16141561290b57601681815481106127a557fe5b9060005260206000209060060201600860008c73ffffffffffffffffffffffffffffffffffffffff1673ffffffffffffffffffffffffffffffffffffffff168152602001908152602001600020600082015481600001556001820160009054906101000a900473ffffffffffffffffffffffffffffffffffffffff168160010160006101000a81548173ffffffffffffffffffffffffffffffffffffffff021916908373ffffffffffffffffffffffffffffffffffffffff1602179055506002820181600201908054600181600116156101000203166002900461288a929190613c05565b50600382018160030190805460018160011615610100020316600290046128b2929190613c05565b50600482018160040190805460018160011615610100020316600290046128da929190613c05565b5060058201816005019080546001816001161561010002031660029004612902929190613c05565b50905050612918565b8080600101915050612719565b50505050505050505050565b50565b5050565b565b612935613b3b565b5050505050565b60086020528060005260406000206000915090508060000154908060010160009054906101000a900473ffffffffffffffffffffffffffffffffffffffff1690806002018054600181600116156101000203166002900480601f016020809104026020016040519081016040528092919081815260200182805460018160011615610100020316600290048015612a145780601f106129e957610100808354040283529160200191612a14565b820191906000526020600020905b8154815290600101906020018083116129f757829003601f168201915b505050505090806003018054600181600116156101000203166002900480601f016020809104026020016040519081016040528092919081815260200182805460018160011615610100020316600290048015612ab25780601f10612a8757610100808354040283529160200191612ab2565b820191906000526020600020905b815481529060010190602001808311612a9557829003601f168201915b505050505090806004018054600181600116156101000203166002900480601f016020809104026020016040519081016040528092919081815260200182805460018160011615610100020316600290048015612b505780601f10612b2557610100808354040283529160200191612b50565b820191906000526020600020905b815481529060010190602001808311612b3357829003601f168201915b505050505090806005018054600181600116156101000203166002900480601f016020809104026020016040519081016040528092919081815260200182805460018160011615610100020316600290048015612bee5780601f10612bc357610100808354040283529160200191612bee565b820191906000526020600020905b815481529060010190602001808311612bd157829003601f168201915b5050505050905086565b6000821415612c6f576040517f08c379a00000000000000000000000000000000000000000000000000000000081526004018080602001828103825260178152602001807f496e76616c69642061616468616172206e756d6265722100000000000000000081525060200191505060405180910390fd5b60008090505b601680549050811015612d52578773ffffffffffffffffffffffffffffffffffffffff1660168281548110612ca657fe5b906000526020600020906006020160010160009054906101000a900473ffffffffffffffffffffffffffffffffffffffff1673ffffffffffffffffffffffffffffffffffffffff161415612d45576040517f08c379a0000000000000000000000000000000000000000000000000000000008152600401808060200182810382526026815260200180613d526026913960400191505060405180910390fd5b8080600101915050612c75565b5060166040518060c001604052808481526020018973ffffffffffffffffffffffffffffffffffffffff16815260200188815260200187815260200186815260200185815250908060018154018082558091505090600182039060005260206000209060060201600090919290919091506000820151816000015560208201518160010160006101000a81548173ffffffffffffffffffffffffffffffffffffffff021916908373ffffffffffffffffffffffffffffffffffffffff1602179055506040820151816002019080519060200190612e30929190613b85565b506060820151816003019080519060200190612e4d929190613b85565b506080820151816004019080519060200190612e6a929190613b85565b5060a0820151816005019080519060200190612e87929190613b85565b5050505050505050505050565b600a6020528060005260406000206000915090508060000154908060010160009054906101000a900473ffffffffffffffffffffffffffffffffffffffff16908060020160009054906101000a900473ffffffffffffffffffffffffffffffffffffffff1690806003018054600181600116156101000203166002900480601f016020809104026020016040519081016040528092919081815260200182805460018160011615610100020316600290048015612f925780601f10612f6757610100808354040283529160200191612f92565b820191906000526020600020905b815481529060010190602001808311612f7557829003601f168201915b505050505090806004015490806005018054600181600116156101000203166002900480601f0160208091040260200160405190810160405280929190818152602001828054600181600116156101000203166002900480156130365780601f1061300b57610100808354040283529160200191613036565b820191906000526020600020905b81548152906001019060200180831161301957829003601f168201915b5050505050908060060154908060070160009054906101000a900460ff1690806008015490806009018054600181600116156101000203166002900480601f0160208091040260200160405190810160405280929190818152602001828054600181600116156101000203166002900480156130f35780601f106130c8576101008083540402835291602001916130f3565b820191906000526020600020905b8154815290600101906020018083116130d657829003601f168201915b50505050509080600a018054600181600116156101000203166002900480601f0160208091040260200160405190810160405280929190818152602001828054600181600116156101000203166002900480156131915780601f1061316657610100808354040283529160200191613191565b820191906000526020600020905b81548152906001019060200180831161317457829003601f168201915b505050505090508b565b5050565b5050565b50565b505050565b60058111613204576040517f08c379a000000000000000000000000000000000000000000000000000000000815260040180806020018281038252602c815260200180613d78602c913960400191505060405180910390fd5b80600960008473ffffffffffffffffffffffffffffffffffffffff1673ffffffffffffffffffffffffffffffffffffffff168152602001908152602001600020819055505050565b60008090505b601880549050811015613380578173ffffffffffffffffffffffffffffffffffffffff166018828154811061328357fe5b906000526020600020906007020160010160009054906101000a900473ffffffffffffffffffffffffffffffffffffffff1673ffffffffffffffffffffffffffffffffffffffff16141561337357601881815481106132de57fe5b90600052602060002090600702016000808201600090556001820160006101000a81549073ffffffffffffffffffffffffffffffffffffffff021916905560028201600061332c9190613b3d565b60038201600061333c9190613b3d565b60048201600061334c9190613b3d565b60058201600061335c9190613b3d565b60068201600061336c9190613b3d565b5050613380565b8080600101915050613252565b5050565b565b5050565b60008090505b6017805490508110156135c4578173ffffffffffffffffffffffffffffffffffffffff16601782815481106133c157fe5b90600052602060002090600b020160010160009054906101000a900473ffffffffffffffffffffffffffffffffffffffff1673ffffffffffffffffffffffffffffffffffffffff1614156135b7573373ffffffffffffffffffffffffffffffffffffffff166017828154811061343357fe5b90600052602060002090600b020160020160009054906101000a900473ffffffffffffffffffffffffffffffffffffffff1673ffffffffffffffffffffffffffffffffffffffff1614156134d2576040517f08c379a0000000000000000000000000000000000000000000000000000000008152600401808060200182810382526029815260200180613cfd6029913960400191505060405180910390fd5b601781815481106134df57fe5b90600052602060002090600b02016000808201600090556001820160006101000a81549073ffffffffffffffffffffffffffffffffffffffff02191690556002820160006101000a81549073ffffffffffffffffffffffffffffffffffffffff02191690556003820160006135549190613b3d565b600482016000905560058201600061356c9190613b3d565b60068201600090556007820160006101000a81549060ff021916905560088201600090556009820160006135a09190613b3d565b600a820160006135b09190613b3d565b50506135c4565b8080600101915050613390565b5050565b60096020528060005260406000206000915090505481565b50565b5050565b600081141561365e576040517f08c379a00000000000000000000000000000000000000000000000000000000081526004018080602001828103825260188152602001807f496e76616c6964206964656e74697479206e756d62657221000000000000000081525060200191505060405180910390fd5b60018714156137e45760166040518060c00160405280838152602001600c60016002036016805490508161368e57fe5b066002811061369957fe5b0160009054906101000a900473ffffffffffffffffffffffffffffffffffffffff1673ffffffffffffffffffffffffffffffffffffffff16815260200188815260200186815260200187815260200185815250908060018154018082558091505090600182039060005260206000209060060201600090919290919091506000820151816000015560208201518160010160006101000a81548173ffffffffffffffffffffffffffffffffffffffff021916908373ffffffffffffffffffffffffffffffffffffffff1602179055506040820151816002019080519060200190613784929190613b85565b5060608201518160030190805190602001906137a1929190613b85565b5060808201518160040190805190602001906137be929190613b85565b5060a08201518160050190805190602001906137db929190613b85565b50505050613b32565b600287141561398c5760196040518060e001604052806007600081546001019190508190558152602001601560009054906101000a900473ffffffffffffffffffffffffffffffffffffffff1673ffffffffffffffffffffffffffffffffffffffff16815260200188815260200186815260200187815260200185815260200160405180602001604052806000815250815250908060018154018082558091505090600182039060005260206000209060070201600090919290919091506000820151816000015560208201518160010160006101000a81548173ffffffffffffffffffffffffffffffffffffffff021916908373ffffffffffffffffffffffffffffffffffffffff160217905550604082015181600201908051906020019061390f929190613b85565b50606082015181600301908051906020019061392c929190613b85565b506080820151816004019080519060200190613949929190613b85565b5060a0820151816005019080519060200190613966929190613b85565b5060c0820151816006019080519060200190613983929190613b85565b50505050613b31565b6003871415613b305760186040518060e001604052806006600081546001019190508190558152602001601460009054906101000a900473ffffffffffffffffffffffffffffffffffffffff1673ffffffffffffffffffffffffffffffffffffffff16815260200188815260200186815260200187815260200185815260200160405180602001604052806000815250815250908060018154018082558091505090600182039060005260206000209060070201600090919290919091506000820151816000015560208201518160010160006101000a81548173ffffffffffffffffffffffffffffffffffffffff021916908373ffffffffffffffffffffffffffffffffffffffff1602179055506040820151816002019080519060200190613ab7929190613b85565b506060820151816003019080519060200190613ad4929190613b85565b506080820151816004019080519060200190613af1929190613b85565b5060a0820151816005019080519060200190613b0e929190613b85565b5060c0820151816006019080519060200190613b2b929190613b85565b505050505b5b5b50505050505050565b565b50805460018160011615610100020316600290046000825580601f10613b635750613b82565b601f016020900490600052602060002090810190613b819190613c8c565b5b50565b828054600181600116156101000203166002900490600052602060002090601f016020900481019282601f10613bc657805160ff1916838001178555613bf4565b82800160010185558215613bf4579182015b82811115613bf3578251825591602001919060010190613bd8565b5b509050613c019190613c8c565b5090565b828054600181600116156101000203166002900490600052602060002090601f016020900481019282601f10613c3e5780548555613c7b565b82800160010185558215613c7b57600052602060002091601f016020900482015b82811115613c7a578254825591600101919060010190613c5f565b5b509050613c889190613c8c565b5090565b613cae91905b80821115613caa576000816000905550600101613c92565b5090565b9056fe436174746c6520616c726561647920616464656420696e746f20746865206e6574776f726b21446169727920616c726561647920616464656420696e746f20746865206e6574776f726b214661726d65722073686f756c6420626520746865206f776e6572206f662074686520636174746c65215665746572696e617269616e20616c726561647920616464656420696e746f20746865206e6574776f726b214661726d657220616c726561647920616464656420696e746f20746865206e6574776f726b21526174696e672073686f756c642062652077697468696e207468652072616e6765206f66203120746f203521a165627a7a72305820b5b8e0363888d8bb89dcf90d6ef0cecb81e1d8e5e6d5a647f6aae80809b346460029",
  "source": "pragma solidity ^0.5.8;\n\nimport \"./Owned.sol\";\nimport \"./BirthDate.sol\";\n\ncontract MarketPlace is Owned {\n\n    //structure of farmer - buyer/seller\n    struct Farmer {\n        uint aadhaar;                               // aadhar id of the farmer\n        address farmer_address;                     // blockchain identifier of the farmer\n        string name;\n        string residence_address;\n        string email;\n        string phone;\n    }\n\n    //structure of cattle\n    struct Cattle {\n        uint cattle_id;                             // unique id of the cattle\n        address cattle_address;                     // blockchain identifier of the cattle\n        address owner;\n        string name;\n        uint age;\n        string breed;\n        uint lastCalfBirth;\n        bool isCow;\n        uint milkInLiters;\n        string health;\n        string description;\n    }\n\n    //structure of dairy_company\n    struct Dairy_Company {\n        uint dairy_id;                             // unique id of the dairy_company\n        address dairy_company_address;             // blockchain identifier of the dairy_company\n        string name;\n        string residence_address;\n        string email;\n        string phone;\n        string description;\n    }\n\n    //structure of Veterinarian\n    struct Veterinarian {\n        uint veterinarians_id;                      // unique id of the Veterinarian\n        address veterinarians_address;              // blockchain identifier of the Veterinarian\n        string name;\n        string residence_address;\n        string email;\n        string phone;\n        string description;\n    }\n    \n    // Global Veriables\n    uint nFarmers;\n    uint nCowsPerFarmer;\n    uint nDaires;\n    uint nVeterinarian;\n    \n    uint cattleCounter = 0;\n    uint dairyCounter = 0;\n    uint veterinarianCounter = 0;\n    \n    // address to borrower map\n    mapping (address => Farmer) public cattle_to_owner_map;\n    mapping (address => uint) public seller_rating_map;\n    \n    mapping(uint => Cattle) public cattles_for_sell_map;\n    uint cattlesForSellCount;\n\n    address[2] dummyFarmers = [0x02e292B88FAF7ca8118b66956faf418724bC3B30, 0x86F6d73036673B379b2b97e6b02f6B100815C7fA];\n    address[6] dummyCattles = [0xfC8CDa1B389223fA8b827687Cd4124C6F2936a7D, 0xF03Bf8432548F49B2782dE4A4a37D1BCb7115557, 0x2FcB336F47dfc35bB68cF595F1C352Fab47E701e, 0x58536970581B2D7D0D789fD4b7297e7D18aDe90E, 0x53ea6c69BD5d0906c226e9Cba5b7D4177656FA06, 0xbd588caC001Ef83e5ddd3021647d5041B19202f5];\n    address dummyDairy = 0x0C07945aC6f20B409248CDBBffac32265e71a444;\n    address dummyVeterinarian = 0x2CD001b47Abd5bB9BBfd8d01f30F0B76917Fa496;\n \n    //Events\n    event sellCattleEvent(\n    uint indexed _id,\n    address indexed _seller,\n    string _name,\n    uint256 _price);\n\n    event sellMilkEvent(\n    uint indexed _id,\n    address indexed _seller,\n    string _name,\n    uint256 _price);\n\n    event buyCattleEvent(\n    uint indexed _id,\n    address indexed _seller,\n    address indexed _buyer,\n    string _name,\n    uint256 _price);\n\n    Farmer[] Farmers;// = new Farmer[](nFarmers);\n    Cattle[] Cattles;// = new Cattle[](nCowsPerFarmer);\n    Dairy_Company[] Dairy_Companies;// = new Dairy_Company[](nDaires);\n    Veterinarian[] Veterinarians;// = new Veterinarian[](nVeterinarian);\n\n    constructor() public {\n    }\n\n    /*constructor(uint _n_farmers, uint _n_cowsperfarmer, uint _n_daires, uint _n_veterinarian) public {\n        nFarmers = _n_farmers;\n        nCowsPerFarmer = _n_cowsperfarmer;\n        nDaires = _n_daires;\n        nVeterinarian = _n_veterinarian;\n    }*/\n\n\n    function registerAccount (uint _accountType, string memory _name, string memory _emailId, string memory _resAddress, string memory _phone, string memory _password1, uint _identity) public {\n        require(_identity != 0, \"Invalid identity number!\");\n        \n        if (_accountType == 1)     // Farmer\n        {\n            //for (uint i = 0; i < Farmers.length; i++)\n            //{\n            //    require(Farmers[i].farmer_address != _new_farmer, \"Farmer already added into the network!\");\n            //}\n            \n            Farmers.push(Farmer({\n                aadhaar: _identity,\n                farmer_address: dummyFarmers[Farmers.length % (dummyFarmers.length - 1)],\n                name: _name,\n                residence_address: _resAddress,\n                email: _emailId,\n                phone: _phone\n            }));\n        }\n        else if (_accountType == 2)     // Veterinarian\n        {\n            //for (uint i = 0; i < Veterinarians.length; i++)\n            //{\n            //    require(Veterinarians[i].veterinarians_address != _new_veterinarian, \"Veterinarian already added into the network!\");\n            //}\n\n            Veterinarians.push(Veterinarian({\n                veterinarians_id: ++veterinarianCounter,                       // unique id of the Veterinarian\n                veterinarians_address: dummyVeterinarian,              // blockchain identifier of the Veterinarian\n                name: _name,\n                residence_address: _resAddress,\n                email: _emailId,\n                phone: _phone,\n                description: \"\"\n            }));\n        }\n        else if (_accountType == 3)     // Dairy Company\n        {\n            //for (uint i = 0; i < Dairy_Companies.length; i++)\n            //{\n            //    //require(Dairy_Companies[i].dairy_company_address != _new_dairy, \"Dairy already added into the network!\");\n            //}\n\n            Dairy_Companies.push(Dairy_Company({\n                dairy_id: ++dairyCounter,                             // unique id of the dairy_company\n                dairy_company_address: dummyDairy,              // blockchain identifier of the dairy_company\n                name: _name,\n                residence_address: _resAddress,\n                email: _emailId,\n                phone: _phone,\n                description: \"\"\n            }));\n        }\n    }\n\n\n    // ====================== Farmer (buyer or seller) Functions Start ======================\n    function RegisterFarmer(address _new_farmer, string memory _name, string memory _res_address, string memory _email, string memory _phone, uint _aadhaar, bool _asSeller/*?*/) public {\n        require(_aadhaar != 0, \"Invalid aadhaar number!\");\n        \n        for (uint i = 0; i < Farmers.length; i++)\n        {\n            require(Farmers[i].farmer_address != _new_farmer, \"Farmer already added into the network!\");\n        }\n        \n        Farmers.push(Farmer({\n            aadhaar: _aadhaar,\n            farmer_address: _new_farmer,\n            name: _name,\n            residence_address: _res_address,\n            email: _email,\n            phone: _phone\n        }));\n    }\n\n    function UnRegisterFarmer(address farmer) public {\n         //- self unregistration\n        for (uint i = 0; i < Farmers.length; i++)\n        {\n            if (Farmers[i].farmer_address == farmer)\n            {\n                delete Farmers[i];\n                break;\n            }\n        }\n    }\n\n    function SetBasePriceForCattle(address cattle, uint baseprice) public {\n        //- farmer should be the owner of the cattle\n    }\n    function StartAuctionForCattle(address cattle, uint acutionperiod) public {\n        // - farmer should be the owner of the cattle\n    }\n    function EndAuctionForCattle(address cattle) public {\n        // - farmer should be the owner of the cattle, - the ownership of the cattle has to be transferred\n    }\n    function SetBasePriceFoCowMilk(address cattle, uint baseprice) public {\n        // - baseprice - per liter, - farmer should be the owner of the cattle\n    }\n    function StartAuctionForCowMilk(address cattle, uint acutionperiod, uint milkInLiters) public {\n        // auctionperiod is in mins\n        // - total price = baseprice * milkInLiters, - farmer should be the owner of the cattle\n    }\n    function EndAuctionForCowMilk(address cattle) public {\n        // - farmer should be the owner of the cattle, the ownership of the cow milk has to be transferred\n    }\n\n    function RegisterCattle(address _new_cattle, string memory _name, uint _age, string memory _breed, uint _lastCalfBirth, bool _isCow, uint _milkInLiters/*?*/, string memory _health/*?*/, string memory _description) public {\n        // - owner should be registered before hand into the system, - health last updated, - get health confirmation from the veterinarians\n        for (uint i = 0; i < Cattles.length; i++)\n        {\n            require(Cattles[i].cattle_address != _new_cattle, \"Cattle already added into the network!\");\n        }\n\n        Cattles.push(Cattle({\n            cattle_id: ++cattleCounter,                             // unique id of the cattle\n            cattle_address: _new_cattle,                            // blockchain identifier of the cattle\n            owner:msg.sender, \n            name: _name, \n            age: _age, \n            breed: _breed, \n            lastCalfBirth: _lastCalfBirth, \n            isCow: _isCow, \n            milkInLiters: _milkInLiters, \n            health: _health, \n            description: _description\n        }));\n\n        // Fillup the cattle ownership map\n        for (uint i = 0; i < Farmers.length; i++)\n        {\n            if (Farmers[i].farmer_address == msg.sender)\n            {\n                cattle_to_owner_map[_new_cattle] = Farmers[i];  // This Farmer is the owner of the cattle\n                break;\n            }\n        }\n    }\n\n    function RequestHealthConfirmation(uint vid, address cattle, string memory health) public {\n        // - get health confirmation from the veterinarians\n    }\n    function HealthConfirmed(address cattle) public {\n        // - event raised by Veterinarians\n    }\n    function UpdateCattleHealth(/*?*/) public {\n        // - health certificate or health as - good, not-good, better, best?, - get health confirmation from the veterinarians\n    }\n\n    function UnRegisterCattle(address cattle) public {\n        // - farmer should be the owner of the cattle\n        \n        for (uint i = 0; i < Cattles.length; i++)\n        {\n            if (Cattles[i].cattle_address == cattle)\n            {\n                require(Cattles[i].owner != msg.sender, \"Farmer should be the owner of the cattle!\");\n                delete Cattles[i];\n                break;\n            }\n        }\n    }\n\n    function PublishRequirement(address buyer, string memory breedofcow, uint ageofcow, bool milk, uint milkInLiters /*or numberofcattles if no milk*/) public {\n        // - buyer's milk or cattle/cow requirement\n\n        // ToDo: auto choose seller\n        ChooseSeller();\n    }\n    function ChooseSeller() private {\n        // - private function, choses the seller based on the given requirements from the buyer\n    }\n    function RateBuyer(address buyer, uint rating) public {\n    }\n\n    function RateSeller(address seller, uint rating) public {\n        // - Based on the past transactions and feedback from the buyer, the sellers will be given a trust score.\n        require(rating > 5, \"Rating should be within the range of 1 to 5!\");\n        \n        seller_rating_map[seller] = rating;\n    }\n\n    function RateDairy(address dairy, uint rating) public {\n    }\n    // ====================== Farmer (buyer or seller) Functions End ======================\n\n    // ====================== DairyCompany Functions Start ======================\n    function RegisterDairy(address _new_dairy, string memory _name, string memory _res_address, string memory _email, string memory _phone, string memory _description) public {\n        for (uint i = 0; i < Dairy_Companies.length; i++)\n        {\n            require(Dairy_Companies[i].dairy_company_address != _new_dairy, \"Dairy already added into the network!\");\n        }\n\n        Dairy_Companies.push(Dairy_Company({\n            dairy_id: ++dairyCounter,                             // unique id of the dairy_company\n            dairy_company_address: _new_dairy,              // blockchain identifier of the dairy_company\n            name: _name,\n            residence_address: _res_address,\n            email: _email,\n            phone: _phone,\n            description: _description\n        }));\n    }\n    function SetPriceForCattle(address cattle, uint price) public { \n        // - criteria - acution should be in progress for that particular cattle.\n    }\n\n    function UnRegisterDairy(address dairy) public {\n        for (uint i = 0; i < Dairy_Companies.length; i++)\n        {\n            if (Dairy_Companies[i].dairy_company_address == dairy)\n            {\n                delete Dairy_Companies[i];\n                break;\n            }\n        }\n    }\n    // ====================== DairyCompany Functions End ======================\n\n    // ====================== Veterinarians Functions Start ======================\n    function RegisterVeterinarian(address _new_veterinarian, string memory _name, string memory _res_address, string memory _email, string memory _phone, string memory _description) public { \n        // - Unique Id\n        for (uint i = 0; i < Veterinarians.length; i++)\n        {\n            require(Veterinarians[i].veterinarians_address != _new_veterinarian, \"Veterinarian already added into the network!\");\n        }\n\n        Veterinarians.push(Veterinarian({\n            veterinarians_id: ++veterinarianCounter,                       // unique id of the Veterinarian\n            veterinarians_address: _new_veterinarian,              // blockchain identifier of the Veterinarian\n            name: _name,\n            residence_address: _res_address,\n            email: _email,\n            phone: _phone,\n            description: _description\n        }));\n    }\n    \n    function ConfirmHealth(address cattle, string memory health) public { \n        // - raises confirm event\n    }\n    function GetHealthConfirmationRequests() public {\n    }\n    \n    function UnRegisterVeterinarian(address veterinarian) public {\n        for (uint i = 0; i < Veterinarians.length; i++)\n        {\n            if (Veterinarians[i].veterinarians_address == veterinarian)\n            {\n                delete Veterinarians[i];\n                break;\n            }\n        }\n    }\n    // ====================== Veterinarians Functions End ======================\n\n    //kill the smart contract\n    function kill() private onlyOwner {\n        //selfdestruct(owner);\n    }\n}\n",
  "sourcePath": "D:/Work/TechGig/2019/Blockchain/FinalRound/marketplace/branches/finalround/contracts/Marketplace.sol",
  "compiler": {
    "name": "solc",
    "version": "0.5.8+commit.23d335f2.Emscripten.clang"
  },
  "schemaVersion": "3.0.11",
  "updatedAt": "2019-06-22T00:09:18.310Z",
  "devdoc": {
    "methods": {}
  },
  "userdoc": {
    "methods": {}
  }
}