{
  "contractName": "MarketPlace",
  "abi": [
    {
      "constant": true,
      "inputs": [
        {
          "name": "",
          "type": "address"
        }
      ],
      "name": "cattle_to_owner_map",
      "outputs": [
        {
          "name": "aadhaar",
          "type": "uint256"
        },
        {
          "name": "farmer_address",
          "type": "address"
        },
        {
          "name": "name",
          "type": "string"
        },
        {
          "name": "residence_address",
          "type": "string"
        },
        {
          "name": "email",
          "type": "string"
        },
        {
          "name": "phone",
          "type": "string"
        }
      ],
      "payable": false,
      "stateMutability": "view",
      "type": "function"
    },
    {
      "constant": true,
      "inputs": [
        {
          "name": "",
          "type": "uint256"
        }
      ],
      "name": "cattles_for_sell_map",
      "outputs": [
        {
          "name": "cattle_id",
          "type": "uint256"
        },
        {
          "name": "cattle_address",
          "type": "address"
        },
        {
          "name": "owner",
          "type": "address"
        },
        {
          "name": "name",
          "type": "string"
        },
        {
          "name": "age",
          "type": "uint256"
        },
        {
          "name": "breed",
          "type": "string"
        },
        {
          "name": "lastCalfBirth",
          "type": "uint256"
        },
        {
          "name": "isCow",
          "type": "bool"
        },
        {
          "name": "milkInLiters",
          "type": "uint256"
        },
        {
          "name": "health",
          "type": "string"
        },
        {
          "name": "description",
          "type": "string"
        }
      ],
      "payable": false,
      "stateMutability": "view",
      "type": "function"
    },
    {
      "constant": true,
      "inputs": [
        {
          "name": "",
          "type": "address"
        }
      ],
      "name": "seller_rating_map",
      "outputs": [
        {
          "name": "",
          "type": "uint256"
        }
      ],
      "payable": false,
      "stateMutability": "view",
      "type": "function"
    },
    {
      "inputs": [],
      "payable": false,
      "stateMutability": "nonpayable",
      "type": "constructor"
    },
    {
      "anonymous": false,
      "inputs": [
        {
          "indexed": true,
          "name": "_id",
          "type": "uint256"
        },
        {
          "indexed": true,
          "name": "_seller",
          "type": "address"
        },
        {
          "indexed": false,
          "name": "_name",
          "type": "string"
        },
        {
          "indexed": false,
          "name": "_price",
          "type": "uint256"
        }
      ],
      "name": "sellCattleEvent",
      "type": "event"
    },
    {
      "anonymous": false,
      "inputs": [
        {
          "indexed": true,
          "name": "_id",
          "type": "uint256"
        },
        {
          "indexed": true,
          "name": "_seller",
          "type": "address"
        },
        {
          "indexed": false,
          "name": "_name",
          "type": "string"
        },
        {
          "indexed": false,
          "name": "_price",
          "type": "uint256"
        }
      ],
      "name": "sellMilkEvent",
      "type": "event"
    },
    {
      "anonymous": false,
      "inputs": [
        {
          "indexed": true,
          "name": "_id",
          "type": "uint256"
        },
        {
          "indexed": true,
          "name": "_seller",
          "type": "address"
        },
        {
          "indexed": true,
          "name": "_buyer",
          "type": "address"
        },
        {
          "indexed": false,
          "name": "_name",
          "type": "string"
        },
        {
          "indexed": false,
          "name": "_price",
          "type": "uint256"
        }
      ],
      "name": "buyCattleEvent",
      "type": "event"
    },
    {
      "constant": false,
      "inputs": [
        {
          "name": "_accountType",
          "type": "uint256"
        },
        {
          "name": "_name",
          "type": "string"
        },
        {
          "name": "_emailId",
          "type": "string"
        },
        {
          "name": "_resAddress",
          "type": "string"
        },
        {
          "name": "_phone",
          "type": "string"
        },
        {
          "name": "_password1",
          "type": "string"
        },
        {
          "name": "_identity",
          "type": "uint256"
        }
      ],
      "name": "registerAccount",
      "outputs": [],
      "payable": false,
      "stateMutability": "nonpayable",
      "type": "function"
    },
    {
      "constant": false,
      "inputs": [
        {
          "name": "_new_farmer",
          "type": "address"
        },
        {
          "name": "_name",
          "type": "string"
        },
        {
          "name": "_res_address",
          "type": "string"
        },
        {
          "name": "_email",
          "type": "string"
        },
        {
          "name": "_phone",
          "type": "string"
        },
        {
          "name": "_aadhaar",
          "type": "uint256"
        },
        {
          "name": "_asSeller",
          "type": "bool"
        }
      ],
      "name": "RegisterFarmer",
      "outputs": [],
      "payable": false,
      "stateMutability": "nonpayable",
      "type": "function"
    },
    {
      "constant": false,
      "inputs": [
        {
          "name": "farmer",
          "type": "address"
        }
      ],
      "name": "UnRegisterFarmer",
      "outputs": [],
      "payable": false,
      "stateMutability": "nonpayable",
      "type": "function"
    },
    {
      "constant": false,
      "inputs": [
        {
          "name": "cattle",
          "type": "address"
        },
        {
          "name": "baseprice",
          "type": "uint256"
        }
      ],
      "name": "SetBasePriceForCattle",
      "outputs": [],
      "payable": false,
      "stateMutability": "nonpayable",
      "type": "function"
    },
    {
      "constant": false,
      "inputs": [
        {
          "name": "cattle",
          "type": "address"
        },
        {
          "name": "acutionperiod",
          "type": "uint256"
        }
      ],
      "name": "StartAuctionForCattle",
      "outputs": [],
      "payable": false,
      "stateMutability": "nonpayable",
      "type": "function"
    },
    {
      "constant": false,
      "inputs": [
        {
          "name": "cattle",
          "type": "address"
        }
      ],
      "name": "EndAuctionForCattle",
      "outputs": [],
      "payable": false,
      "stateMutability": "nonpayable",
      "type": "function"
    },
    {
      "constant": false,
      "inputs": [
        {
          "name": "cattle",
          "type": "address"
        },
        {
          "name": "baseprice",
          "type": "uint256"
        }
      ],
      "name": "SetBasePriceFoCowMilk",
      "outputs": [],
      "payable": false,
      "stateMutability": "nonpayable",
      "type": "function"
    },
    {
      "constant": false,
      "inputs": [
        {
          "name": "cattle",
          "type": "address"
        },
        {
          "name": "acutionperiod",
          "type": "uint256"
        },
        {
          "name": "milkInLiters",
          "type": "uint256"
        }
      ],
      "name": "StartAuctionForCowMilk",
      "outputs": [],
      "payable": false,
      "stateMutability": "nonpayable",
      "type": "function"
    },
    {
      "constant": false,
      "inputs": [
        {
          "name": "cattle",
          "type": "address"
        }
      ],
      "name": "EndAuctionForCowMilk",
      "outputs": [],
      "payable": false,
      "stateMutability": "nonpayable",
      "type": "function"
    },
    {
      "constant": false,
      "inputs": [
        {
          "name": "_name",
          "type": "string"
        },
        {
          "name": "_age",
          "type": "uint256"
        },
        {
          "name": "_breed",
          "type": "string"
        },
        {
          "name": "_lastCalfBirth",
          "type": "uint256"
        },
        {
          "name": "_isCow",
          "type": "bool"
        },
        {
          "name": "_milkInLiters",
          "type": "uint256"
        },
        {
          "name": "_health",
          "type": "string"
        },
        {
          "name": "_description",
          "type": "string"
        }
      ],
      "name": "RegisterCattle",
      "outputs": [],
      "payable": false,
      "stateMutability": "nonpayable",
      "type": "function"
    },
    {
      "constant": false,
      "inputs": [
        {
          "name": "vid",
          "type": "uint256"
        },
        {
          "name": "cattle",
          "type": "address"
        },
        {
          "name": "health",
          "type": "string"
        }
      ],
      "name": "RequestHealthConfirmation",
      "outputs": [],
      "payable": false,
      "stateMutability": "nonpayable",
      "type": "function"
    },
    {
      "constant": false,
      "inputs": [
        {
          "name": "cattle",
          "type": "address"
        }
      ],
      "name": "HealthConfirmed",
      "outputs": [],
      "payable": false,
      "stateMutability": "nonpayable",
      "type": "function"
    },
    {
      "constant": false,
      "inputs": [],
      "name": "UpdateCattleHealth",
      "outputs": [],
      "payable": false,
      "stateMutability": "nonpayable",
      "type": "function"
    },
    {
      "constant": false,
      "inputs": [
        {
          "name": "cattle",
          "type": "address"
        }
      ],
      "name": "UnRegisterCattle",
      "outputs": [],
      "payable": false,
      "stateMutability": "nonpayable",
      "type": "function"
    },
    {
      "constant": false,
      "inputs": [
        {
          "name": "buyer",
          "type": "address"
        },
        {
          "name": "breedofcow",
          "type": "string"
        },
        {
          "name": "ageofcow",
          "type": "uint256"
        },
        {
          "name": "milk",
          "type": "bool"
        },
        {
          "name": "milkInLiters",
          "type": "uint256"
        }
      ],
      "name": "PublishRequirement",
      "outputs": [],
      "payable": false,
      "stateMutability": "nonpayable",
      "type": "function"
    },
    {
      "constant": false,
      "inputs": [
        {
          "name": "buyer",
          "type": "address"
        },
        {
          "name": "rating",
          "type": "uint256"
        }
      ],
      "name": "RateBuyer",
      "outputs": [],
      "payable": false,
      "stateMutability": "nonpayable",
      "type": "function"
    },
    {
      "constant": false,
      "inputs": [
        {
          "name": "seller",
          "type": "address"
        },
        {
          "name": "rating",
          "type": "uint256"
        }
      ],
      "name": "RateSeller",
      "outputs": [],
      "payable": false,
      "stateMutability": "nonpayable",
      "type": "function"
    },
    {
      "constant": false,
      "inputs": [
        {
          "name": "dairy",
          "type": "address"
        },
        {
          "name": "rating",
          "type": "uint256"
        }
      ],
      "name": "RateDairy",
      "outputs": [],
      "payable": false,
      "stateMutability": "nonpayable",
      "type": "function"
    },
    {
      "constant": false,
      "inputs": [
        {
          "name": "_new_dairy",
          "type": "address"
        },
        {
          "name": "_name",
          "type": "string"
        },
        {
          "name": "_res_address",
          "type": "string"
        },
        {
          "name": "_email",
          "type": "string"
        },
        {
          "name": "_phone",
          "type": "string"
        },
        {
          "name": "_description",
          "type": "string"
        }
      ],
      "name": "RegisterDairy",
      "outputs": [],
      "payable": false,
      "stateMutability": "nonpayable",
      "type": "function"
    },
    {
      "constant": false,
      "inputs": [
        {
          "name": "cattle",
          "type": "address"
        },
        {
          "name": "price",
          "type": "uint256"
        }
      ],
      "name": "SetPriceForCattle",
      "outputs": [],
      "payable": false,
      "stateMutability": "nonpayable",
      "type": "function"
    },
    {
      "constant": false,
      "inputs": [
        {
          "name": "dairy",
          "type": "address"
        }
      ],
      "name": "UnRegisterDairy",
      "outputs": [],
      "payable": false,
      "stateMutability": "nonpayable",
      "type": "function"
    },
    {
      "constant": false,
      "inputs": [
        {
          "name": "_new_veterinarian",
          "type": "address"
        },
        {
          "name": "_name",
          "type": "string"
        },
        {
          "name": "_res_address",
          "type": "string"
        },
        {
          "name": "_email",
          "type": "string"
        },
        {
          "name": "_phone",
          "type": "string"
        },
        {
          "name": "_description",
          "type": "string"
        }
      ],
      "name": "RegisterVeterinarian",
      "outputs": [],
      "payable": false,
      "stateMutability": "nonpayable",
      "type": "function"
    },
    {
      "constant": false,
      "inputs": [
        {
          "name": "cattle",
          "type": "address"
        },
        {
          "name": "health",
          "type": "string"
        }
      ],
      "name": "ConfirmHealth",
      "outputs": [],
      "payable": false,
      "stateMutability": "nonpayable",
      "type": "function"
    },
    {
      "constant": false,
      "inputs": [],
      "name": "GetHealthConfirmationRequests",
      "outputs": [],
      "payable": false,
      "stateMutability": "nonpayable",
      "type": "function"
    },
    {
      "constant": false,
      "inputs": [
        {
          "name": "veterinarian",
          "type": "address"
        }
      ],
      "name": "UnRegisterVeterinarian",
      "outputs": [],
      "payable": false,
      "stateMutability": "nonpayable",
      "type": "function"
    }
  ],
  "bytecode": "0x608060405260006005556000600655600060075560405180604001604052807302e292b88faf7ca8118b66956faf418724bc3b3073ffffffffffffffffffffffffffffffffffffffff1673ffffffffffffffffffffffffffffffffffffffff1681526020017386f6d73036673b379b2b97e6b02f6b100815c7fa73ffffffffffffffffffffffffffffffffffffffff1673ffffffffffffffffffffffffffffffffffffffff16815250600c906002620000ba92919062000379565b506040518060c0016040528073fc8cda1b389223fa8b827687cd4124c6f2936a7d73ffffffffffffffffffffffffffffffffffffffff1673ffffffffffffffffffffffffffffffffffffffff16815260200173f03bf8432548f49b2782de4a4a37d1bcb711555773ffffffffffffffffffffffffffffffffffffffff1673ffffffffffffffffffffffffffffffffffffffff168152602001732fcb336f47dfc35bb68cf595f1c352fab47e701e73ffffffffffffffffffffffffffffffffffffffff1673ffffffffffffffffffffffffffffffffffffffff1681526020017358536970581b2d7d0d789fd4b7297e7d18ade90e73ffffffffffffffffffffffffffffffffffffffff1673ffffffffffffffffffffffffffffffffffffffff1681526020017353ea6c69bd5d0906c226e9cba5b7d4177656fa0673ffffffffffffffffffffffffffffffffffffffff1673ffffffffffffffffffffffffffffffffffffffff16815260200173bd588cac001ef83e5ddd3021647d5041b19202f573ffffffffffffffffffffffffffffffffffffffff1673ffffffffffffffffffffffffffffffffffffffff16815250600e9060066200027a929190620003fb565b50730c07945ac6f20b409248cdbbffac32265e71a444601460006101000a81548173ffffffffffffffffffffffffffffffffffffffff021916908373ffffffffffffffffffffffffffffffffffffffff160217905550732cd001b47abd5bb9bbfd8d01f30f0b76917fa496601560006101000a81548173ffffffffffffffffffffffffffffffffffffffff021916908373ffffffffffffffffffffffffffffffffffffffff1602179055503480156200033257600080fd5b50336000806101000a81548173ffffffffffffffffffffffffffffffffffffffff021916908373ffffffffffffffffffffffffffffffffffffffff160217905550620004c3565b8260028101928215620003e8579160200282015b82811115620003e75782518260006101000a81548173ffffffffffffffffffffffffffffffffffffffff021916908373ffffffffffffffffffffffffffffffffffffffff160217905550916020019190600101906200038d565b5b509050620003f791906200047d565b5090565b82600681019282156200046a579160200282015b82811115620004695782518260006101000a81548173ffffffffffffffffffffffffffffffffffffffff021916908373ffffffffffffffffffffffffffffffffffffffff160217905550916020019190600101906200040f565b5b5090506200047991906200047d565b5090565b620004c091905b80821115620004bc57600081816101000a81549073ffffffffffffffffffffffffffffffffffffffff02191690555060010162000484565b5090565b90565b613d2480620004d36000396000f3fe608060405234801561001057600080fd5b50600436106101c45760003560e01c8063b380ad49116100f9578063ef24f7c911610097578063f58bdcda11610071578063f58bdcda14611851578063f8b55cbc146118a9578063fa1ffd48146118ed578063fb9efd5e146119c8576101c4565b8063ef24f7c9146117b5578063f05bbb69146117bf578063f46a8a8c1461180d576101c4565b8063cb53a608116100d3578063cb53a60814611687578063da54cf4c146116cb578063dbe97c8014611723578063ea6e584714611771576101c4565b8063b380ad4914611373578063bca39968146115eb578063be87cf9114611639576101c4565b80636e2c358d116101665780639a687932116101405780639a68793214610d7d578063a3d93a7a14610d87578063a4f4ff9914610e82578063a8a14857146110bd576101c4565b80636e2c358d146109b457806386b7777314610ceb578063976c6ba814610d2f576101c4565b80633aeca2d6116101a25780633aeca2d6146105925780633febc6901461083d57806340e8698f146109225780634217568114610966576101c4565b806312a5bc5b146101c95780631d8585491461020d57806327283b2e1461025b575b600080fd5b61020b600480360360208110156101df57600080fd5b81019080803573ffffffffffffffffffffffffffffffffffffffff169060200190929190505050611cf3565b005b6102596004803603604081101561022357600080fd5b81019080803573ffffffffffffffffffffffffffffffffffffffff16906020019092919080359060200190929190505050611e2b565b005b610590600480360360c081101561027157600080fd5b81019080803573ffffffffffffffffffffffffffffffffffffffff169060200190929190803590602001906401000000008111156102ae57600080fd5b8201836020820111156102c057600080fd5b803590602001918460018302840111640100000000831117156102e257600080fd5b91908080601f016020809104026020016040519081016040528093929190818152602001838380828437600081840152601f19601f8201169050808301925050505050505091929192908035906020019064010000000081111561034557600080fd5b82018360208201111561035757600080fd5b8035906020019184600183028401116401000000008311171561037957600080fd5b91908080601f016020809104026020016040519081016040528093929190818152602001838380828437600081840152601f19601f820116905080830192505050505050509192919290803590602001906401000000008111156103dc57600080fd5b8201836020820111156103ee57600080fd5b8035906020019184600183028401116401000000008311171561041057600080fd5b91908080601f016020809104026020016040519081016040528093929190818152602001838380828437600081840152601f19601f8201169050808301925050505050505091929192908035906020019064010000000081111561047357600080fd5b82018360208201111561048557600080fd5b803590602001918460018302840111640100000000831117156104a757600080fd5b91908080601f016020809104026020016040519081016040528093929190818152602001838380828437600081840152601f19601f8201169050808301925050505050505091929192908035906020019064010000000081111561050a57600080fd5b82018360208201111561051c57600080fd5b8035906020019184600183028401116401000000008311171561053e57600080fd5b91908080601f016020809104026020016040519081016040528093929190818152602001838380828437600081840152601f19601f820116905080830192505050505050509192919290505050611e2f565b005b61083b60048036036101008110156105a957600080fd5b81019080803590602001906401000000008111156105c657600080fd5b8201836020820111156105d857600080fd5b803590602001918460018302840111640100000000831117156105fa57600080fd5b91908080601f016020809104026020016040519081016040528093929190818152602001838380828437600081840152601f19601f820116905080830192505050505050509192919290803590602001909291908035906020019064010000000081111561066757600080fd5b82018360208201111561067957600080fd5b8035906020019184600183028401116401000000008311171561069b57600080fd5b91908080601f016020809104026020016040519081016040528093929190818152602001838380828437600081840152601f19601f82011690508083019250505050505050919291929080359060200190929190803515159060200190929190803590602001909291908035906020019064010000000081111561071e57600080fd5b82018360208201111561073057600080fd5b8035906020019184600183028401116401000000008311171561075257600080fd5b91908080601f016020809104026020016040519081016040528093929190818152602001838380828437600081840152601f19601f820116905080830192505050505050509192919290803590602001906401000000008111156107b557600080fd5b8201836020820111156107c757600080fd5b803590602001918460018302840111640100000000831117156107e957600080fd5b91908080601f016020809104026020016040519081016040528093929190818152602001838380828437600081840152601f19601f820116905080830192505050505050509192919290505050612084565b005b6109206004803603606081101561085357600080fd5b8101908080359060200190929190803573ffffffffffffffffffffffffffffffffffffffff1690602001909291908035906020019064010000000081111561089a57600080fd5b8201836020820111156108ac57600080fd5b803590602001918460018302840111640100000000831117156108ce57600080fd5b91908080601f016020809104026020016040519081016040528093929190818152602001838380828437600081840152601f19601f820116905080830192505050505050509192919290505050612519565b005b6109646004803603602081101561093857600080fd5b81019080803573ffffffffffffffffffffffffffffffffffffffff16906020019092919050505061251e565b005b6109b26004803603604081101561097c57600080fd5b81019080803573ffffffffffffffffffffffffffffffffffffffff16906020019092919080359060200190929190505050612646565b005b610ce9600480360360c08110156109ca57600080fd5b81019080803573ffffffffffffffffffffffffffffffffffffffff16906020019092919080359060200190640100000000811115610a0757600080fd5b820183602082011115610a1957600080fd5b80359060200191846001830284011164010000000083111715610a3b57600080fd5b91908080601f016020809104026020016040519081016040528093929190818152602001838380828437600081840152601f19601f82011690508083019250505050505050919291929080359060200190640100000000811115610a9e57600080fd5b820183602082011115610ab057600080fd5b80359060200191846001830284011164010000000083111715610ad257600080fd5b91908080601f016020809104026020016040519081016040528093929190818152602001838380828437600081840152601f19601f82011690508083019250505050505050919291929080359060200190640100000000811115610b3557600080fd5b820183602082011115610b4757600080fd5b80359060200191846001830284011164010000000083111715610b6957600080fd5b91908080601f016020809104026020016040519081016040528093929190818152602001838380828437600081840152601f19601f82011690508083019250505050505050919291929080359060200190640100000000811115610bcc57600080fd5b820183602082011115610bde57600080fd5b80359060200191846001830284011164010000000083111715610c0057600080fd5b91908080601f016020809104026020016040519081016040528093929190818152602001838380828437600081840152601f19601f82011690508083019250505050505050919291929080359060200190640100000000811115610c6357600080fd5b820183602082011115610c7557600080fd5b80359060200191846001830284011164010000000083111715610c9757600080fd5b91908080601f016020809104026020016040519081016040528093929190818152602001838380828437600081840152601f19601f82011690508083019250505050505050919291929050505061264a565b005b610d2d60048036036020811015610d0157600080fd5b81019080803573ffffffffffffffffffffffffffffffffffffffff16906020019092919050505061289f565b005b610d7b60048036036040811015610d4557600080fd5b81019080803573ffffffffffffffffffffffffffffffffffffffff169060200190929190803590602001909291905050506128a2565b005b610d856128a6565b005b610e80600480360360a0811015610d9d57600080fd5b81019080803573ffffffffffffffffffffffffffffffffffffffff16906020019092919080359060200190640100000000811115610dda57600080fd5b820183602082011115610dec57600080fd5b80359060200191846001830284011164010000000083111715610e0e57600080fd5b91908080601f016020809104026020016040519081016040528093929190818152602001838380828437600081840152601f19601f82011690508083019250505050505050919291929080359060200190929190803515159060200190929190803590602001909291905050506128a8565b005b610ec460048036036020811015610e9857600080fd5b81019080803573ffffffffffffffffffffffffffffffffffffffff1690602001909291905050506128b7565b604051808781526020018673ffffffffffffffffffffffffffffffffffffffff1673ffffffffffffffffffffffffffffffffffffffff16815260200180602001806020018060200180602001858103855289818151815260200191508051906020019080838360005b83811015610f48578082015181840152602081019050610f2d565b50505050905090810190601f168015610f755780820380516001836020036101000a031916815260200191505b50858103845288818151815260200191508051906020019080838360005b83811015610fae578082015181840152602081019050610f93565b50505050905090810190601f168015610fdb5780820380516001836020036101000a031916815260200191505b50858103835287818151815260200191508051906020019080838360005b83811015611014578082015181840152602081019050610ff9565b50505050905090810190601f1680156110415780820380516001836020036101000a031916815260200191505b50858103825286818151815260200191508051906020019080838360005b8381101561107a57808201518184015260208101905061105f565b50505050905090810190601f1680156110a75780820380516001836020036101000a031916815260200191505b509a505050505050505050505060405180910390f35b611371600480360360e08110156110d357600080fd5b81019080803573ffffffffffffffffffffffffffffffffffffffff1690602001909291908035906020019064010000000081111561111057600080fd5b82018360208201111561112257600080fd5b8035906020019184600183028401116401000000008311171561114457600080fd5b91908080601f016020809104026020016040519081016040528093929190818152602001838380828437600081840152601f19601f820116905080830192505050505050509192919290803590602001906401000000008111156111a757600080fd5b8201836020820111156111b957600080fd5b803590602001918460018302840111640100000000831117156111db57600080fd5b91908080601f016020809104026020016040519081016040528093929190818152602001838380828437600081840152601f19601f8201169050808301925050505050505091929192908035906020019064010000000081111561123e57600080fd5b82018360208201111561125057600080fd5b8035906020019184600183028401116401000000008311171561127257600080fd5b91908080601f016020809104026020016040519081016040528093929190818152602001838380828437600081840152601f19601f820116905080830192505050505050509192919290803590602001906401000000008111156112d557600080fd5b8201836020820111156112e757600080fd5b8035906020019184600183028401116401000000008311171561130957600080fd5b91908080601f016020809104026020016040519081016040528093929190818152602001838380828437600081840152601f19601f82011690508083019250505050505050919291929080359060200190929190803515159060200190929190505050612b73565b005b61139f6004803603602081101561138957600080fd5b8101908080359060200190929190505050612e0f565b604051808c81526020018b73ffffffffffffffffffffffffffffffffffffffff1673ffffffffffffffffffffffffffffffffffffffff1681526020018a73ffffffffffffffffffffffffffffffffffffffff1673ffffffffffffffffffffffffffffffffffffffff168152602001806020018981526020018060200188815260200187151515158152602001868152602001806020018060200185810385528d818151815260200191508051906020019080838360005b83811015611471578082015181840152602081019050611456565b50505050905090810190601f16801561149e5780820380516001836020036101000a031916815260200191505b5085810384528b818151815260200191508051906020019080838360005b838110156114d75780820151818401526020810190506114bc565b50505050905090810190601f1680156115045780820380516001836020036101000a031916815260200191505b50858103835287818151815260200191508051906020019080838360005b8381101561153d578082015181840152602081019050611522565b50505050905090810190601f16801561156a5780820380516001836020036101000a031916815260200191505b50858103825286818151815260200191508051906020019080838360005b838110156115a3578082015181840152602081019050611588565b50505050905090810190601f1680156115d05780820380516001836020036101000a031916815260200191505b509f5050505050505050505050505050505060405180910390f35b6116376004803603604081101561160157600080fd5b81019080803573ffffffffffffffffffffffffffffffffffffffff16906020019092919080359060200190929190505050613116565b005b6116856004803603604081101561164f57600080fd5b81019080803573ffffffffffffffffffffffffffffffffffffffff1690602001909291908035906020019092919050505061311a565b005b6116c96004803603602081101561169d57600080fd5b81019080803573ffffffffffffffffffffffffffffffffffffffff16906020019092919050505061311e565b005b611721600480360360608110156116e157600080fd5b81019080803573ffffffffffffffffffffffffffffffffffffffff1690602001909291908035906020019092919080359060200190929190505050613121565b005b61176f6004803603604081101561173957600080fd5b81019080803573ffffffffffffffffffffffffffffffffffffffff16906020019092919080359060200190929190505050613126565b005b6117b36004803603602081101561178757600080fd5b81019080803573ffffffffffffffffffffffffffffffffffffffff1690602001909291905050506131c7565b005b6117bd6132ff565b005b61180b600480360360408110156117d557600080fd5b81019080803573ffffffffffffffffffffffffffffffffffffffff16906020019092919080359060200190929190505050613301565b005b61184f6004803603602081101561182357600080fd5b81019080803573ffffffffffffffffffffffffffffffffffffffff169060200190929190505050613305565b005b6118936004803603602081101561186757600080fd5b81019080803573ffffffffffffffffffffffffffffffffffffffff169060200190929190505050613543565b6040518082815260200191505060405180910390f35b6118eb600480360360208110156118bf57600080fd5b81019080803573ffffffffffffffffffffffffffffffffffffffff16906020019092919050505061355b565b005b6119c66004803603604081101561190357600080fd5b81019080803573ffffffffffffffffffffffffffffffffffffffff1690602001909291908035906020019064010000000081111561194057600080fd5b82018360208201111561195257600080fd5b8035906020019184600183028401116401000000008311171561197457600080fd5b91908080601f016020809104026020016040519081016040528093929190818152602001838380828437600081840152601f19601f82011690508083019250505050505050919291929050505061355e565b005b611cf1600480360360e08110156119de57600080fd5b810190808035906020019092919080359060200190640100000000811115611a0557600080fd5b820183602082011115611a1757600080fd5b80359060200191846001830284011164010000000083111715611a3957600080fd5b91908080601f016020809104026020016040519081016040528093929190818152602001838380828437600081840152601f19601f82011690508083019250505050505050919291929080359060200190640100000000811115611a9c57600080fd5b820183602082011115611aae57600080fd5b80359060200191846001830284011164010000000083111715611ad057600080fd5b91908080601f016020809104026020016040519081016040528093929190818152602001838380828437600081840152601f19601f82011690508083019250505050505050919291929080359060200190640100000000811115611b3357600080fd5b820183602082011115611b4557600080fd5b80359060200191846001830284011164010000000083111715611b6757600080fd5b91908080601f016020809104026020016040519081016040528093929190818152602001838380828437600081840152601f19601f82011690508083019250505050505050919291929080359060200190640100000000811115611bca57600080fd5b820183602082011115611bdc57600080fd5b80359060200191846001830284011164010000000083111715611bfe57600080fd5b91908080601f016020809104026020016040519081016040528093929190818152602001838380828437600081840152601f19601f82011690508083019250505050505050919291929080359060200190640100000000811115611c6157600080fd5b820183602082011115611c7357600080fd5b80359060200191846001830284011164010000000083111715611c9557600080fd5b91908080601f016020809104026020016040519081016040528093929190818152602001838380828437600081840152601f19601f82011690508083019250505050505050919291929080359060200190929190505050613562565b005b60008090505b601980549050811015611e27578173ffffffffffffffffffffffffffffffffffffffff1660198281548110611d2a57fe5b906000526020600020906007020160010160009054906101000a900473ffffffffffffffffffffffffffffffffffffffff1673ffffffffffffffffffffffffffffffffffffffff161415611e1a5760198181548110611d8557fe5b90600052602060002090600702016000808201600090556001820160006101000a81549073ffffffffffffffffffffffffffffffffffffffff0219169055600282016000611dd39190613ab8565b600382016000611de39190613ab8565b600482016000611df39190613ab8565b600582016000611e039190613ab8565b600682016000611e139190613ab8565b5050611e27565b8080600101915050611cf9565b5050565b5050565b60008090505b601980549050811015611f12578673ffffffffffffffffffffffffffffffffffffffff1660198281548110611e6657fe5b906000526020600020906007020160010160009054906101000a900473ffffffffffffffffffffffffffffffffffffffff1673ffffffffffffffffffffffffffffffffffffffff161415611f05576040517f08c379a000000000000000000000000000000000000000000000000000000000815260040180806020018281038252602c815260200180613c7b602c913960400191505060405180910390fd5b8080600101915050611e35565b5060196040518060e0016040528060076000815460010191905081905581526020018873ffffffffffffffffffffffffffffffffffffffff16815260200187815260200186815260200185815260200184815260200183815250908060018154018082558091505090600182039060005260206000209060070201600090919290919091506000820151816000015560208201518160010160006101000a81548173ffffffffffffffffffffffffffffffffffffffff021916908373ffffffffffffffffffffffffffffffffffffffff1602179055506040820151816002019080519060200190612004929190613b00565b506060820151816003019080519060200190612021929190613b00565b50608082015181600401908051906020019061203e929190613b00565b5060a082015181600501908051906020019061205b929190613b00565b5060c0820151816006019080519060200190612078929190613b00565b50505050505050505050565b60176040518061016001604052806005600081546001019190508190558152602001600e6001600603601780549050816120ba57fe5b06600681106120c557fe5b0160009054906101000a900473ffffffffffffffffffffffffffffffffffffffff1673ffffffffffffffffffffffffffffffffffffffff1681526020013373ffffffffffffffffffffffffffffffffffffffff1681526020018a81526020018981526020018881526020018781526020018615158152602001858152602001848152602001838152509080600181540180825580915050906001820390600052602060002090600b0201600090919290919091506000820151816000015560208201518160010160006101000a81548173ffffffffffffffffffffffffffffffffffffffff021916908373ffffffffffffffffffffffffffffffffffffffff16021790555060408201518160020160006101000a81548173ffffffffffffffffffffffffffffffffffffffff021916908373ffffffffffffffffffffffffffffffffffffffff160217905550606082015181600301908051906020019061222d929190613b00565b506080820151816004015560a0820151816005019080519060200190612254929190613b00565b5060c0820151816006015560e08201518160070160006101000a81548160ff02191690831515021790555061010082015181600801556101208201518160090190805190602001906122a7929190613b00565b5061014082015181600a0190805190602001906122c5929190613b00565b5050505060008090505b60168054905081101561250e573373ffffffffffffffffffffffffffffffffffffffff166016828154811061230057fe5b906000526020600020906006020160010160009054906101000a900473ffffffffffffffffffffffffffffffffffffffff1673ffffffffffffffffffffffffffffffffffffffff161415612501576016818154811061235b57fe5b906000526020600020906006020160086000600e60016006036017805490508161238157fe5b066006811061238c57fe5b0160009054906101000a900473ffffffffffffffffffffffffffffffffffffffff1673ffffffffffffffffffffffffffffffffffffffff1673ffffffffffffffffffffffffffffffffffffffff168152602001908152602001600020600082015481600001556001820160009054906101000a900473ffffffffffffffffffffffffffffffffffffffff168160010160006101000a81548173ffffffffffffffffffffffffffffffffffffffff021916908373ffffffffffffffffffffffffffffffffffffffff16021790555060028201816002019080546001816001161561010002031660029004612480929190613b80565b50600382018160030190805460018160011615610100020316600290046124a8929190613b80565b50600482018160040190805460018160011615610100020316600290046124d0929190613b80565b50600582018160050190805460018160011615610100020316600290046124f8929190613b80565b5090505061250e565b80806001019150506122cf565b505050505050505050565b505050565b60008090505b601680549050811015612642578173ffffffffffffffffffffffffffffffffffffffff166016828154811061255557fe5b906000526020600020906006020160010160009054906101000a900473ffffffffffffffffffffffffffffffffffffffff1673ffffffffffffffffffffffffffffffffffffffff16141561263557601681815481106125b057fe5b90600052602060002090600602016000808201600090556001820160006101000a81549073ffffffffffffffffffffffffffffffffffffffff02191690556002820160006125fe9190613ab8565b60038201600061260e9190613ab8565b60048201600061261e9190613ab8565b60058201600061262e9190613ab8565b5050612642565b8080600101915050612524565b5050565b5050565b60008090505b60188054905081101561272d578673ffffffffffffffffffffffffffffffffffffffff166018828154811061268157fe5b906000526020600020906007020160010160009054906101000a900473ffffffffffffffffffffffffffffffffffffffff1673ffffffffffffffffffffffffffffffffffffffff161415612720576040517f08c379a0000000000000000000000000000000000000000000000000000000008152600401808060200182810382526025815260200180613c2d6025913960400191505060405180910390fd5b8080600101915050612650565b5060186040518060e0016040528060066000815460010191905081905581526020018873ffffffffffffffffffffffffffffffffffffffff16815260200187815260200186815260200185815260200184815260200183815250908060018154018082558091505090600182039060005260206000209060070201600090919290919091506000820151816000015560208201518160010160006101000a81548173ffffffffffffffffffffffffffffffffffffffff021916908373ffffffffffffffffffffffffffffffffffffffff160217905550604082015181600201908051906020019061281f929190613b00565b50606082015181600301908051906020019061283c929190613b00565b506080820151816004019080519060200190612859929190613b00565b5060a0820151816005019080519060200190612876929190613b00565b5060c0820151816006019080519060200190612893929190613b00565b50505050505050505050565b50565b5050565b565b6128b0613ab6565b5050505050565b60086020528060005260406000206000915090508060000154908060010160009054906101000a900473ffffffffffffffffffffffffffffffffffffffff1690806002018054600181600116156101000203166002900480601f01602080910402602001604051908101604052809291908181526020018280546001816001161561010002031660029004801561298f5780601f106129645761010080835404028352916020019161298f565b820191906000526020600020905b81548152906001019060200180831161297257829003601f168201915b505050505090806003018054600181600116156101000203166002900480601f016020809104026020016040519081016040528092919081815260200182805460018160011615610100020316600290048015612a2d5780601f10612a0257610100808354040283529160200191612a2d565b820191906000526020600020905b815481529060010190602001808311612a1057829003601f168201915b505050505090806004018054600181600116156101000203166002900480601f016020809104026020016040519081016040528092919081815260200182805460018160011615610100020316600290048015612acb5780601f10612aa057610100808354040283529160200191612acb565b820191906000526020600020905b815481529060010190602001808311612aae57829003601f168201915b505050505090806005018054600181600116156101000203166002900480601f016020809104026020016040519081016040528092919081815260200182805460018160011615610100020316600290048015612b695780601f10612b3e57610100808354040283529160200191612b69565b820191906000526020600020905b815481529060010190602001808311612b4c57829003601f168201915b5050505050905086565b6000821415612bea576040517f08c379a00000000000000000000000000000000000000000000000000000000081526004018080602001828103825260178152602001807f496e76616c69642061616468616172206e756d6265722100000000000000000081525060200191505060405180910390fd5b60008090505b601680549050811015612ccd578773ffffffffffffffffffffffffffffffffffffffff1660168281548110612c2157fe5b906000526020600020906006020160010160009054906101000a900473ffffffffffffffffffffffffffffffffffffffff1673ffffffffffffffffffffffffffffffffffffffff161415612cc0576040517f08c379a0000000000000000000000000000000000000000000000000000000008152600401808060200182810382526026815260200180613ca76026913960400191505060405180910390fd5b8080600101915050612bf0565b5060166040518060c001604052808481526020018973ffffffffffffffffffffffffffffffffffffffff16815260200188815260200187815260200186815260200185815250908060018154018082558091505090600182039060005260206000209060060201600090919290919091506000820151816000015560208201518160010160006101000a81548173ffffffffffffffffffffffffffffffffffffffff021916908373ffffffffffffffffffffffffffffffffffffffff1602179055506040820151816002019080519060200190612dab929190613b00565b506060820151816003019080519060200190612dc8929190613b00565b506080820151816004019080519060200190612de5929190613b00565b5060a0820151816005019080519060200190612e02929190613b00565b5050505050505050505050565b600a6020528060005260406000206000915090508060000154908060010160009054906101000a900473ffffffffffffffffffffffffffffffffffffffff16908060020160009054906101000a900473ffffffffffffffffffffffffffffffffffffffff1690806003018054600181600116156101000203166002900480601f016020809104026020016040519081016040528092919081815260200182805460018160011615610100020316600290048015612f0d5780601f10612ee257610100808354040283529160200191612f0d565b820191906000526020600020905b815481529060010190602001808311612ef057829003601f168201915b505050505090806004015490806005018054600181600116156101000203166002900480601f016020809104026020016040519081016040528092919081815260200182805460018160011615610100020316600290048015612fb15780601f10612f8657610100808354040283529160200191612fb1565b820191906000526020600020905b815481529060010190602001808311612f9457829003601f168201915b5050505050908060060154908060070160009054906101000a900460ff1690806008015490806009018054600181600116156101000203166002900480601f01602080910402602001604051908101604052809291908181526020018280546001816001161561010002031660029004801561306e5780601f106130435761010080835404028352916020019161306e565b820191906000526020600020905b81548152906001019060200180831161305157829003601f168201915b50505050509080600a018054600181600116156101000203166002900480601f01602080910402602001604051908101604052809291908181526020018280546001816001161561010002031660029004801561310c5780601f106130e15761010080835404028352916020019161310c565b820191906000526020600020905b8154815290600101906020018083116130ef57829003601f168201915b505050505090508b565b5050565b5050565b50565b505050565b6005811161317f576040517f08c379a000000000000000000000000000000000000000000000000000000000815260040180806020018281038252602c815260200180613ccd602c913960400191505060405180910390fd5b80600960008473ffffffffffffffffffffffffffffffffffffffff1673ffffffffffffffffffffffffffffffffffffffff168152602001908152602001600020819055505050565b60008090505b6018805490508110156132fb578173ffffffffffffffffffffffffffffffffffffffff16601882815481106131fe57fe5b906000526020600020906007020160010160009054906101000a900473ffffffffffffffffffffffffffffffffffffffff1673ffffffffffffffffffffffffffffffffffffffff1614156132ee576018818154811061325957fe5b90600052602060002090600702016000808201600090556001820160006101000a81549073ffffffffffffffffffffffffffffffffffffffff02191690556002820160006132a79190613ab8565b6003820160006132b79190613ab8565b6004820160006132c79190613ab8565b6005820160006132d79190613ab8565b6006820160006132e79190613ab8565b50506132fb565b80806001019150506131cd565b5050565b565b5050565b60008090505b60178054905081101561353f578173ffffffffffffffffffffffffffffffffffffffff166017828154811061333c57fe5b90600052602060002090600b020160010160009054906101000a900473ffffffffffffffffffffffffffffffffffffffff1673ffffffffffffffffffffffffffffffffffffffff161415613532573373ffffffffffffffffffffffffffffffffffffffff16601782815481106133ae57fe5b90600052602060002090600b020160020160009054906101000a900473ffffffffffffffffffffffffffffffffffffffff1673ffffffffffffffffffffffffffffffffffffffff16141561344d576040517f08c379a0000000000000000000000000000000000000000000000000000000008152600401808060200182810382526029815260200180613c526029913960400191505060405180910390fd5b6017818154811061345a57fe5b90600052602060002090600b02016000808201600090556001820160006101000a81549073ffffffffffffffffffffffffffffffffffffffff02191690556002820160006101000a81549073ffffffffffffffffffffffffffffffffffffffff02191690556003820160006134cf9190613ab8565b60048201600090556005820160006134e79190613ab8565b60068201600090556007820160006101000a81549060ff0219169055600882016000905560098201600061351b9190613ab8565b600a8201600061352b9190613ab8565b505061353f565b808060010191505061330b565b5050565b60096020528060005260406000206000915090505481565b50565b5050565b60008114156135d9576040517f08c379a00000000000000000000000000000000000000000000000000000000081526004018080602001828103825260188152602001807f496e76616c6964206964656e74697479206e756d62657221000000000000000081525060200191505060405180910390fd5b600187141561375f5760166040518060c00160405280838152602001600c60016002036016805490508161360957fe5b066002811061361457fe5b0160009054906101000a900473ffffffffffffffffffffffffffffffffffffffff1673ffffffffffffffffffffffffffffffffffffffff16815260200188815260200186815260200187815260200185815250908060018154018082558091505090600182039060005260206000209060060201600090919290919091506000820151816000015560208201518160010160006101000a81548173ffffffffffffffffffffffffffffffffffffffff021916908373ffffffffffffffffffffffffffffffffffffffff16021790555060408201518160020190805190602001906136ff929190613b00565b50606082015181600301908051906020019061371c929190613b00565b506080820151816004019080519060200190613739929190613b00565b5060a0820151816005019080519060200190613756929190613b00565b50505050613aad565b60028714156139075760196040518060e001604052806007600081546001019190508190558152602001601560009054906101000a900473ffffffffffffffffffffffffffffffffffffffff1673ffffffffffffffffffffffffffffffffffffffff16815260200188815260200186815260200187815260200185815260200160405180602001604052806000815250815250908060018154018082558091505090600182039060005260206000209060070201600090919290919091506000820151816000015560208201518160010160006101000a81548173ffffffffffffffffffffffffffffffffffffffff021916908373ffffffffffffffffffffffffffffffffffffffff160217905550604082015181600201908051906020019061388a929190613b00565b5060608201518160030190805190602001906138a7929190613b00565b5060808201518160040190805190602001906138c4929190613b00565b5060a08201518160050190805190602001906138e1929190613b00565b5060c08201518160060190805190602001906138fe929190613b00565b50505050613aac565b6003871415613aab5760186040518060e001604052806006600081546001019190508190558152602001601460009054906101000a900473ffffffffffffffffffffffffffffffffffffffff1673ffffffffffffffffffffffffffffffffffffffff16815260200188815260200186815260200187815260200185815260200160405180602001604052806000815250815250908060018154018082558091505090600182039060005260206000209060070201600090919290919091506000820151816000015560208201518160010160006101000a81548173ffffffffffffffffffffffffffffffffffffffff021916908373ffffffffffffffffffffffffffffffffffffffff1602179055506040820151816002019080519060200190613a32929190613b00565b506060820151816003019080519060200190613a4f929190613b00565b506080820151816004019080519060200190613a6c929190613b00565b5060a0820151816005019080519060200190613a89929190613b00565b5060c0820151816006019080519060200190613aa6929190613b00565b505050505b5b5b50505050505050565b565b50805460018160011615610100020316600290046000825580601f10613ade5750613afd565b601f016020900490600052602060002090810190613afc9190613c07565b5b50565b828054600181600116156101000203166002900490600052602060002090601f016020900481019282601f10613b4157805160ff1916838001178555613b6f565b82800160010185558215613b6f579182015b82811115613b6e578251825591602001919060010190613b53565b5b509050613b7c9190613c07565b5090565b828054600181600116156101000203166002900490600052602060002090601f016020900481019282601f10613bb95780548555613bf6565b82800160010185558215613bf657600052602060002091601f016020900482015b82811115613bf5578254825591600101919060010190613bda565b5b509050613c039190613c07565b5090565b613c2991905b80821115613c25576000816000905550600101613c0d565b5090565b9056fe446169727920616c726561647920616464656420696e746f20746865206e6574776f726b214661726d65722073686f756c6420626520746865206f776e6572206f662074686520636174746c65215665746572696e617269616e20616c726561647920616464656420696e746f20746865206e6574776f726b214661726d657220616c726561647920616464656420696e746f20746865206e6574776f726b21526174696e672073686f756c642062652077697468696e207468652072616e6765206f66203120746f203521a165627a7a72305820c50def5333c8a6c6418f4ab6e8b6c7eaa754e4de49449da6baf77be58306ec120029",
  "source": "pragma solidity ^0.5.8;\n\nimport \"./Owned.sol\";\nimport \"./BirthDate.sol\";\n\ncontract MarketPlace is Owned {\n\n    //structure of farmer - buyer/seller\n    struct Farmer {\n        uint aadhaar;                               // aadhar id of the farmer\n        address farmer_address;                     // blockchain identifier of the farmer\n        string name;\n        string residence_address;\n        string email;\n        string phone;\n    }\n\n    //structure of cattle\n    struct Cattle {\n        uint cattle_id;                             // unique id of the cattle\n        address cattle_address;                     // blockchain identifier of the cattle\n        address owner;\n        string name;\n        uint age;\n        string breed;\n        uint lastCalfBirth;\n        bool isCow;\n        uint milkInLiters;\n        string health;\n        string description;\n    }\n\n    //structure of dairy_company\n    struct Dairy_Company {\n        uint dairy_id;                             // unique id of the dairy_company\n        address dairy_company_address;             // blockchain identifier of the dairy_company\n        string name;\n        string residence_address;\n        string email;\n        string phone;\n        string description;\n    }\n\n    //structure of Veterinarian\n    struct Veterinarian {\n        uint veterinarians_id;                      // unique id of the Veterinarian\n        address veterinarians_address;              // blockchain identifier of the Veterinarian\n        string name;\n        string residence_address;\n        string email;\n        string phone;\n        string description;\n    }\n    \n    // Global Veriables\n    uint nFarmers;\n    uint nCowsPerFarmer;\n    uint nDaires;\n    uint nVeterinarian;\n    \n    uint cattleCounter = 0;\n    uint dairyCounter = 0;\n    uint veterinarianCounter = 0;\n    \n    // address to borrower map\n    mapping (address => Farmer) public cattle_to_owner_map;\n    mapping (address => uint) public seller_rating_map;\n    \n    mapping(uint => Cattle) public cattles_for_sell_map;\n    uint cattlesForSellCount;\n\n    address[2] dummyFarmers = [0x02e292B88FAF7ca8118b66956faf418724bC3B30, 0x86F6d73036673B379b2b97e6b02f6B100815C7fA];\n    address[6] dummyCattles = [0xfC8CDa1B389223fA8b827687Cd4124C6F2936a7D, 0xF03Bf8432548F49B2782dE4A4a37D1BCb7115557, 0x2FcB336F47dfc35bB68cF595F1C352Fab47E701e, 0x58536970581B2D7D0D789fD4b7297e7D18aDe90E, 0x53ea6c69BD5d0906c226e9Cba5b7D4177656FA06, 0xbd588caC001Ef83e5ddd3021647d5041B19202f5];\n    address dummyDairy = 0x0C07945aC6f20B409248CDBBffac32265e71a444;\n    address dummyVeterinarian = 0x2CD001b47Abd5bB9BBfd8d01f30F0B76917Fa496;\n \n    //Events\n    event sellCattleEvent(\n    uint indexed _id,\n    address indexed _seller,\n    string _name,\n    uint256 _price);\n\n    event sellMilkEvent(\n    uint indexed _id,\n    address indexed _seller,\n    string _name,\n    uint256 _price);\n\n    event buyCattleEvent(\n    uint indexed _id,\n    address indexed _seller,\n    address indexed _buyer,\n    string _name,\n    uint256 _price);\n\n    Farmer[] Farmers;// = new Farmer[](nFarmers);\n    Cattle[] Cattles;// = new Cattle[](nCowsPerFarmer);\n    Dairy_Company[] Dairy_Companies;// = new Dairy_Company[](nDaires);\n    Veterinarian[] Veterinarians;// = new Veterinarian[](nVeterinarian);\n\n    constructor() public {\n    }\n\n    /*constructor(uint _n_farmers, uint _n_cowsperfarmer, uint _n_daires, uint _n_veterinarian) public {\n        nFarmers = _n_farmers;\n        nCowsPerFarmer = _n_cowsperfarmer;\n        nDaires = _n_daires;\n        nVeterinarian = _n_veterinarian;\n    }*/\n\n\n    function registerAccount (uint _accountType, string memory _name, string memory _emailId, string memory _resAddress, string memory _phone, string memory _password1, uint _identity) public {\n        require(_identity != 0, \"Invalid identity number!\");\n        \n        if (_accountType == 1)     // Farmer\n        {\n            //for (uint i = 0; i < Farmers.length; i++)\n            //{\n            //    require(Farmers[i].farmer_address != _new_farmer, \"Farmer already added into the network!\");\n            //}\n            \n            Farmers.push(Farmer({\n                aadhaar: _identity,\n                farmer_address: dummyFarmers[Farmers.length % (dummyFarmers.length - 1)],\n                name: _name,\n                residence_address: _resAddress,\n                email: _emailId,\n                phone: _phone\n            }));\n        }\n        else if (_accountType == 2)     // Veterinarian\n        {\n            //for (uint i = 0; i < Veterinarians.length; i++)\n            //{\n            //    require(Veterinarians[i].veterinarians_address != _new_veterinarian, \"Veterinarian already added into the network!\");\n            //}\n\n            Veterinarians.push(Veterinarian({\n                veterinarians_id: ++veterinarianCounter,                       // unique id of the Veterinarian\n                veterinarians_address: dummyVeterinarian,              // blockchain identifier of the Veterinarian\n                name: _name,\n                residence_address: _resAddress,\n                email: _emailId,\n                phone: _phone,\n                description: \"\"\n            }));\n        }\n        else if (_accountType == 3)     // Dairy Company\n        {\n            //for (uint i = 0; i < Dairy_Companies.length; i++)\n            //{\n            //    //require(Dairy_Companies[i].dairy_company_address != _new_dairy, \"Dairy already added into the network!\");\n            //}\n\n            Dairy_Companies.push(Dairy_Company({\n                dairy_id: ++dairyCounter,                             // unique id of the dairy_company\n                dairy_company_address: dummyDairy,              // blockchain identifier of the dairy_company\n                name: _name,\n                residence_address: _resAddress,\n                email: _emailId,\n                phone: _phone,\n                description: \"\"\n            }));\n        }\n    }\n\n\n    // ====================== Farmer (buyer or seller) Functions Start ======================\n    function RegisterFarmer(address _new_farmer, string memory _name, string memory _res_address, string memory _email, string memory _phone, uint _aadhaar, bool _asSeller/*?*/) public {\n        require(_aadhaar != 0, \"Invalid aadhaar number!\");\n        \n        for (uint i = 0; i < Farmers.length; i++)\n        {\n            require(Farmers[i].farmer_address != _new_farmer, \"Farmer already added into the network!\");\n        }\n        \n        Farmers.push(Farmer({\n            aadhaar: _aadhaar,\n            farmer_address: _new_farmer,\n            name: _name,\n            residence_address: _res_address,\n            email: _email,\n            phone: _phone\n        }));\n    }\n\n    function UnRegisterFarmer(address farmer) public {\n         //- self unregistration\n        for (uint i = 0; i < Farmers.length; i++)\n        {\n            if (Farmers[i].farmer_address == farmer)\n            {\n                delete Farmers[i];\n                break;\n            }\n        }\n    }\n\n    function SetBasePriceForCattle(address cattle, uint baseprice) public {\n        //- farmer should be the owner of the cattle\n    }\n    function StartAuctionForCattle(address cattle, uint acutionperiod) public {\n        // - farmer should be the owner of the cattle\n    }\n    function EndAuctionForCattle(address cattle) public {\n        // - farmer should be the owner of the cattle, - the ownership of the cattle has to be transferred\n    }\n    function SetBasePriceFoCowMilk(address cattle, uint baseprice) public {\n        // - baseprice - per liter, - farmer should be the owner of the cattle\n    }\n    function StartAuctionForCowMilk(address cattle, uint acutionperiod, uint milkInLiters) public {\n        // auctionperiod is in mins\n        // - total price = baseprice * milkInLiters, - farmer should be the owner of the cattle\n    }\n    function EndAuctionForCowMilk(address cattle) public {\n        // - farmer should be the owner of the cattle, the ownership of the cow milk has to be transferred\n    }\n\n    function RegisterCattle(string memory _name, uint _age, string memory _breed, uint _lastCalfBirth, bool _isCow, uint _milkInLiters/*?*/, string memory _health/*?*/, string memory _description) public {\n        // - owner should be registered before hand into the system, - health last updated, - get health confirmation from the veterinarians\n        //for (uint i = 0; i < Cattles.length; i++)\n        //{\n        //    require(Cattles[i].cattle_address != _new_cattle, \"Cattle already added into the network!\");\n        //}\n\n        Cattles.push(Cattle({\n            cattle_id: ++cattleCounter,                             // unique id of the cattle\n            cattle_address: dummyCattles[Cattles.length % (dummyCattles.length - 1)],                            // blockchain identifier of the cattle\n            owner:msg.sender, \n            name: _name, \n            age: _age, \n            breed: _breed, \n            lastCalfBirth: _lastCalfBirth, \n            isCow: _isCow, \n            milkInLiters: _milkInLiters, \n            health: _health, \n            description: _description\n        }));\n\n        // Fillup the cattle ownership map\n        for (uint i = 0; i < Farmers.length; i++)\n        {\n            if (Farmers[i].farmer_address == msg.sender)\n            {\n                cattle_to_owner_map[dummyCattles[Cattles.length % (dummyCattles.length - 1)]] = Farmers[i];  // This Farmer is the owner of the cattle\n                break;\n            }\n        }\n    }\n\n    function RequestHealthConfirmation(uint vid, address cattle, string memory health) public {\n        // - get health confirmation from the veterinarians\n    }\n    function HealthConfirmed(address cattle) public {\n        // - event raised by Veterinarians\n    }\n    function UpdateCattleHealth(/*?*/) public {\n        // - health certificate or health as - good, not-good, better, best?, - get health confirmation from the veterinarians\n    }\n\n    function UnRegisterCattle(address cattle) public {\n        // - farmer should be the owner of the cattle\n        \n        for (uint i = 0; i < Cattles.length; i++)\n        {\n            if (Cattles[i].cattle_address == cattle)\n            {\n                require(Cattles[i].owner != msg.sender, \"Farmer should be the owner of the cattle!\");\n                delete Cattles[i];\n                break;\n            }\n        }\n    }\n\n    function PublishRequirement(address buyer, string memory breedofcow, uint ageofcow, bool milk, uint milkInLiters /*or numberofcattles if no milk*/) public {\n        // - buyer's milk or cattle/cow requirement\n\n        // ToDo: auto choose seller\n        ChooseSeller();\n    }\n    function ChooseSeller() private {\n        // - private function, choses the seller based on the given requirements from the buyer\n    }\n    function RateBuyer(address buyer, uint rating) public {\n    }\n\n    function RateSeller(address seller, uint rating) public {\n        // - Based on the past transactions and feedback from the buyer, the sellers will be given a trust score.\n        require(rating > 5, \"Rating should be within the range of 1 to 5!\");\n        \n        seller_rating_map[seller] = rating;\n    }\n\n    function RateDairy(address dairy, uint rating) public {\n    }\n    // ====================== Farmer (buyer or seller) Functions End ======================\n\n    // ====================== DairyCompany Functions Start ======================\n    function RegisterDairy(address _new_dairy, string memory _name, string memory _res_address, string memory _email, string memory _phone, string memory _description) public {\n        for (uint i = 0; i < Dairy_Companies.length; i++)\n        {\n            require(Dairy_Companies[i].dairy_company_address != _new_dairy, \"Dairy already added into the network!\");\n        }\n\n        Dairy_Companies.push(Dairy_Company({\n            dairy_id: ++dairyCounter,                             // unique id of the dairy_company\n            dairy_company_address: _new_dairy,              // blockchain identifier of the dairy_company\n            name: _name,\n            residence_address: _res_address,\n            email: _email,\n            phone: _phone,\n            description: _description\n        }));\n    }\n    function SetPriceForCattle(address cattle, uint price) public { \n        // - criteria - acution should be in progress for that particular cattle.\n    }\n\n    function UnRegisterDairy(address dairy) public {\n        for (uint i = 0; i < Dairy_Companies.length; i++)\n        {\n            if (Dairy_Companies[i].dairy_company_address == dairy)\n            {\n                delete Dairy_Companies[i];\n                break;\n            }\n        }\n    }\n    // ====================== DairyCompany Functions End ======================\n\n    // ====================== Veterinarians Functions Start ======================\n    function RegisterVeterinarian(address _new_veterinarian, string memory _name, string memory _res_address, string memory _email, string memory _phone, string memory _description) public { \n        // - Unique Id\n        for (uint i = 0; i < Veterinarians.length; i++)\n        {\n            require(Veterinarians[i].veterinarians_address != _new_veterinarian, \"Veterinarian already added into the network!\");\n        }\n\n        Veterinarians.push(Veterinarian({\n            veterinarians_id: ++veterinarianCounter,                       // unique id of the Veterinarian\n            veterinarians_address: _new_veterinarian,              // blockchain identifier of the Veterinarian\n            name: _name,\n            residence_address: _res_address,\n            email: _email,\n            phone: _phone,\n            description: _description\n        }));\n    }\n    \n    function ConfirmHealth(address cattle, string memory health) public { \n        // - raises confirm event\n    }\n    function GetHealthConfirmationRequests() public {\n    }\n    \n    function UnRegisterVeterinarian(address veterinarian) public {\n        for (uint i = 0; i < Veterinarians.length; i++)\n        {\n            if (Veterinarians[i].veterinarians_address == veterinarian)\n            {\n                delete Veterinarians[i];\n                break;\n            }\n        }\n    }\n    // ====================== Veterinarians Functions End ======================\n\n    //kill the smart contract\n    function kill() private onlyOwner {\n        //selfdestruct(owner);\n    }\n}\n",
  "sourcePath": "D:/Work/TechGig/2019/Blockchain/FinalRound/marketplace/branches/finalround/contracts/Marketplace.sol",
  "compiler": {
    "name": "solc",
    "version": "0.5.8+commit.23d335f2.Emscripten.clang"
  },
  "schemaVersion": "3.0.11",
  "updatedAt": "2019-06-22T03:25:44.442Z",
  "devdoc": {
    "methods": {}
  },
  "userdoc": {
    "methods": {}
  }
}